:020000040800F2
:10000000100D0020E13800087D2900087F29000834
:1000100081290008832900088529000800000000C4
:100020000000000000000000000000008729000818
:1000300089290008000000008B2900088D2900088C
:1000400095290008A1290008AD290008B929000850
:10005000C5290008D1290008DD290008E929000880
:10006000F5290008012A00080D2A0008192A0008AD
:10007000252A0008312A00083D2A0008492A0008DC
:10008000552A0008612A00086D2A00087D2A000808
:10009000892A0008992A0008A52A0008B12A000820
:1000A000BD2A0008C92A0008D52A0008E12A00084C
:1000B000ED2A0008FD2A00080D2B00081D2B000862
:1000C000292B0008352B0008412B00084D2B000878
:1000D000592B0008652B0008752B0008812B0008A0
:1000E000912B00089D2B0008A92B0008B52B0008B8
:1000F000C12B0008CD2B0008D92B0008E52B0008E8
:10010000F12B0008FD2B0008092C0008152C000815
:10011000212C00082D2C0008392C0008452C000843
:10012000552C0008612C00086D2C0008792C000863
:10013000852C0008912C00089D2C0008A92C000893
:10014000B52C0008C12C0008CD2C0008D92C0008C3
:10015000E52C0008F12C0008FD2C0008092D0008F2
:10016000192D0008252D0008312D00083D2D00080F
:10017000492D0008552D0008612D00086D2D00083F
:10018000792D0008852D000810B50400DFF8BC04A7
:1001900084420AD101215FF0007000F021FB0021B0
:1001A0005FF0007000F01CFB09E001215FF080604F
:1001B00000F016FB00215FF0806000F011FB10BD25
:1001C00030B4020000200023146834F002041460EC
:1001D000146854F0010414605468E40705D44FF621
:1001E000FF74A34201D05B1CF6E75468E40702D415
:1001F0000024200073E091F90640012C04D114681A
:1002000054F08004146003E0146834F08004146037
:1002100091F90740012C04D1146854F04004146093
:1002200003E0146834F04004146091F90840012C94
:1002300004D1146854F02004146003E0146834F00E
:100240002004146091F90940012C04D1146854F081
:100250001004146003E0146834F01004146091F981
:100260000A40012C04D1146854F00804146003E01F
:10027000146834F00804146091F90B40012C04D187
:10028000146854F00404146003E0146834F00404A7
:1002900014608C78CD782D0655EA84740D7954EA73
:1002A00005444D7954EA05540D886D1E2C43D461E4
:1002B0001468640864001460002423005468E40790
:1002C00005D54FF6FF74A34201D05B1CF6E75468D6
:1002D000E40702D50024200001E001242000C0B280
:1002E00030BC704710B400210122837A9A4011007B
:1002F000DFF85C23126852F00102DFF854331A6011
:10030000DFF8502312688A43DFF848331A60027B13
:10031000002A19D1DFF8402312688A43DFF8383306
:100320001A60C288438853EA0242837ADFF82C437A
:1003300044F83320827ADFF8243313EBC202838837
:10034000048854EA03435360027B012A19D1DFF881
:10035000082312680A43DFF800331A6002884388D2
:1003600053EA0242837ADFF8F44244F83320827A77
:10037000DFF8E83213EBC2028388C48854EA0343EF
:100380005360C27A002A07D1DFF8D42212688A4368
:10039000DFF8CC321A6006E0DFF8C42212680A43A4
:1003A000DFF8BC321A600289002A06D1DFF8B422D5
:1003B00012688A43DFF8AC321A600289012A06D13A
:1003C000DFF8A02212680A43DFF898321A6090F929
:1003D0000D20012A06D1DFF87C2212680A43DFF8DB
:1003E00074321A60DFF86822126852085200DFF88F
:1003F00060321A6010BC7047002181710021C17108
:100400000021017200214172002181720021C1721C
:10041000002181700021C17003210171022141710D
:1004200001210180704730B40200002093685B0115
:1004300002D5002318000DE093681B0102D50123AB
:10044000180007E09368DB0002D50223180001E0E2
:1004500004231800C0B2042875D0C0B212EB0013F8
:10046000D3F8803113F00103C0B212EB0014C4F8CA
:1004700080310B7A002B0FD1C0B212EB0013D3F8EE
:1004800080310C684D7A55EA44542343C0B212EBD4
:100490000014C4F8803110E0C0B212EB0013D3F89E
:1004A00080314C680D7A55EAC4044D7A2C432343BD
:1004B000C0B212EB0014C4F880318B7A13F00F0332
:1004C0008B72C0B212EB0013D3F884311B091B01ED
:1004D000C0B212EB0014C4F88431C0B212EB0013A6
:1004E000D3F884318C7A2343C0B212EB0014C4F8E1
:1004F00084318B7B4C7B240454EA03630C7B53EAEA
:100500000423CC7A2343C0B212EB0014C4F8883120
:100510008B7C4C7C240454EA03630C7C53EA042354
:10052000CC7B2343C0B212EB0014C4F88C31C0B2B0
:1005300012EB0013D3F8803153F00103C0B212EB79
:100540000014C4F88031C0B230BC7047C9B210EB9F
:100550000113D3F8B03113F004031372137A002B94
:1005600007D1C9B210EB0113D3F8B0315B0D1360A2
:1005700006E0C9B210EB0113D3F8B031DB085360C9
:10058000C9B210EB0113D3F8B03113F00203537268
:10059000C9B210EB0113D3F8B43113F00F03937207
:1005A000C9B210EB0113D3F8B4311B0AD374C9B22A
:1005B00010EB0113D3F8B831D372C9B210EB0113A9
:1005C000D3F8B8311B0A1373C9B210EB0113D3F877
:1005D000B8311B0C5373C9B210EB0113D3F8B83107
:1005E0001B0E9373C9B210EB0113D3F8BC31D37354
:1005F000C9B210EB0113D3F8BC311B0A1374C9B292
:1006000010EB0113D3F8BC311B0C5374C9B210EBBF
:100610000113D3F8BC311B0E9374C9B2002904D165
:10062000C36853F02003C36003E0036953F0200361
:100630000361704752B2002A03D043690B43436100
:1006400002E043698B43436170470000006400404F
:10065000006600401C6600400C660040406600409A
:100660000466004014660040F0B40021002200231C
:10067000022400250226DFF8A4713F6817F00C075A
:1006800039000F00002F04D0042F06D0082F08D007
:100690003CE0DFF8907107603BE0DFF88C710760A9
:1006A00037E0DFF87C713F68C7F380573D00DFF823
:1006B00070713F6817F03F073E00002D0DD0DFF846
:1006C0006871B7FBF6F7DFF858C1DCF800C0CCF36F
:1006D000881C0CFB07F73B000CE0DFF84871B7FB08
:1006E000F6F7DFF83CC1DCF800C0CCF3881C0CFB4B
:1006F00007F73B00DFF828713F68C7F301477F1C0D
:100700007F003C00B3FBF4F7076002E0DFF81471F0
:100710000760DFF808713F6817F0F0073900090932
:10072000DFF80871CF5D3A000768D7404760DFF80F
:10073000EC703F6817F4E0573900890ADFF8EC7075
:10074000CF5D3A004768D7408760344F3F6817F461
:1007500060473900490BDFF8D470CF5D3A00476835
:10076000D740C760F0BC704749B2002905D0304A75
:10077000126802432E4B1A6004E02D4A126882432D
:100780002B4B1A60704749B2002905D0294A1268DC
:100790000243284B1A6004E0264A12688243254B24
:1007A0001A60704749B2002905D0234A12680243F3
:1007B000214B1A6004E0204A126882431E4B1A60E3
:1007C000704749B2002905D01C4A126802431B4BEE
:1007D0001A6004E0194A12688243184B1A60704785
:1007E00049B2002905D0164A12680243144B1A6018
:1007F00004E0134A12688243114B1A60704749B2F1
:10080000002905D00F4A126802430E4B1A6004E01B
:100810000C4A126882430B4B1A607047083802403A
:10082000043802400024F40040787D0100000020DC
:10083000303802404038024044380240103802400C
:10084000203802402438024010B588B0040000204F
:10085000DFF858140880DFF8541448800020DFF8CF
:1008600050140880DFF848144880DFF8480400215D
:10087000016010220021DFF8400400F023FADFF8C5
:100880003C0400F041FA07220921DFF8340400F0AB
:1008900097FC07220A21DFF8280400F091FC0020D1
:1008A0008DF80A0001208DF80B0002208DF8080059
:1008B00003208DF809004FF40070019001A9DFF8C2
:1008C000000400F021FC4FF48060019001A9DFF8E2
:1008D000F00300F019FC01211020FFF763FF03A8CB
:1008E00000F0EAFA03940020ADF810000020ADF803
:1008F00012000020ADF814000C20ADF81600002006
:10090000ADF8180003A9DFF8B40300F04FFA252072
:100910008DF8000000208DF8010007208DF80200FE
:1009200001208DF8030000A800F07DFC01222821A1
:10093000DFF8880300F0E4FA012240F22771DFF8C3
:100940007C0300F0DDFA012240F22551DFF86C0350
:1009500000F0D6FA002240F22661DFF8600300F0D2
:10096000CFFA002240F22441DFF8500300F0C8FA29
:10097000002240F64601DFF8440300F0C1FA0022ED
:1009800040F66A11DFF8340300F0BAFA0022602161
:10099000DFF8280300F0B4FA0121DFF8200300F0AB
:1009A00099FA08B010BD80B50821C44800F0D3FA08
:1009B000002808D0C14800F09FFABE48006850F0F7
:1009C0000200BC4908600421BC4800F0C4FA0028B9
:1009D00005D10221B94800F0BEFA002808D0B74876
:1009E00000F08AFAB348006850F00800B149086086
:1009F0000121B24800F0AFFA002808D0AF4800F05B
:100A00007BFAAC48006850F00400AA490860202135
:100A1000AA4800F0A0FA00280DD0A84800F06CFA0F
:100A2000C0B200F0F8F8002805D1A248006850F0E4
:100A30000200A04908608021A04800F08CFA00283C
:100A400018D040F227719D4800F094FA002811D088
:100A500000A800F0C0F8002806D09DF8001089B268
:100A6000964800F045FA05E0002240F227719348CD
:100A700000F046FA01BD38B504000D006DB2002D3E
:100A800003D04AF65520208002E045F2AA5020808B
:100A90006088A1880818E1880818218908186189E8
:100AA0000818A0810E21200000F001F831BD70B5BA
:100AB00004000D00ADB2002D01D1002025E000267C
:100AC00000F0F2FB7A4800887949498888420CD1C5
:100AD000012240F22771794800F012FAB6B2315D76
:100AE00089B2764800F004FA761CB6B2ADB2AE42D6
:100AF00007D2B6B2305D00F043F8002801D0761C72
:100B0000F3E700F0DFFB300080B270BDF8B5040001
:100B1000694E00A800F0AAF800282FD00020070096
:100B2000FFB20D2F06DAFFB2B8194078FFB2B85500
:100B30007F1CF5E79DF8000070735F4800884AF657
:100B400055218842E5D15C4840885B49898808186E
:100B50005949C988081858490989081856494989BE
:100B60000818050054488089ADB28542D1D10E22C3
:100B70005149200000F0B2FB012000E00020F2BD4E
:100B800010B401004A480088421C92B24FF48073AE
:100B9000100090FBF3F202FB13024548408892B22A
:100BA000824201D1002014E041480088404BC01827
:100BB00001713F480088401C3D4B18803C4800882C
:100BC0004FF4807390FBF3F404FB13043848048063
:100BD000012010BC7047010035480088344A528813
:100BE000904201D1002015E031484088304A8018F9
:100BF000007908702E484088401C2D4A50802C48AF
:100C000040884FF4807290FBF2F303FB12032848F4
:100C100043800120704710B4010024480088421C22
:100C200092B24FF48073100090FBF3F202FB1302B8
:100C30001E48408892B2824201D1002014E01B4835
:100C400000881A4BC018017118480088401C174BC7
:100C50001880164800884FF4807390FBF3F404FB6F
:100C6000130412480480012010BC704701000F4893
:100C700000880E4A5288904201D1002015E00B48AE
:100C800040880A4A80180079087008484088401C4B
:100C9000064A5080054840884FF4807290FBF2F37A
:100CA00003FB12030148438001207047100200201B
:100CB00014030020DC0800209008002000100140F0
:100CC0000000024070B504000D0016002A0031003B
:100CD000200000F00FFB200070BD10B450F8041B82
:100CE00081B102681218001D50F8043BDC0744BFB4
:100CF000A9F10104E31852F8044B43F8044B091F0F
:100D0000F9D1EBE710BC704710B50400634884428A
:100D100008D101211020FFF772FD00211020FFF7FC
:100D20006EFD42E05E4884420AD101215FF400304A
:100D3000FFF756FD00215FF40030FFF751FD34E06E
:100D4000584884420AD101215FF48020FFF748FD12
:100D500000215FF48020FFF743FD26E052488442E3
:100D60000AD101215FF40020FFF73AFD00215FF472
:100D70000020FFF735FD18E04C4884420AD10121DC
:100D80005FF48010FFF72CFD00215FF48010FFF767
:100D900027FD0AE04648844207D101212020FFF7C1
:100DA0002EFD00212020FFF72AFD10BD2DE9F04384
:100DB00085B004000D005FF00009002600275FF0F9
:100DC0000008A8890028208A814639F44059E8881B
:100DD00050EA0909A4F81090A0898146354810EA24
:100DE0000909A888298908436989084350EA09093B
:100DF000A4F80C90A08A814639F44079A88950EA79
:100E00000909A4F8149000A8FFF72EFC2348844297
:100E100002D02748844202D10398060001E00298DC
:100E20000600A089000408D5192000FB06F02968F7
:100E30004900B0FBF1F0070007E0192000FB06F0C5
:100E400029688900B0FBF1F007006420B7FBF0F0DF
:100E5000000181465FEA1910642101FB1070804691
:100E6000A08900040AD55FEAC80032306421B0FBD3
:100E7000F1F010F0070050EA090909E05FEA0810F4
:100E800032306421B0FBF1F010F00F0050EA090994
:100E9000A4F8089005B0BDE8F08300000010014000
:100EA0000044004000480040004C0040005000401A
:100EB00000140140F3E9FFFF4FF4165101600021D7
:100EC00081800021C180002101810C21418100210C
:100ED0008181704749B2002904D0828952F40052BE
:100EE000828104E082894DF6FF731A408281704747
:100EF000CA05D20D828070478088C005C00D70473A
:100F0000F0B4002300240025002689B240F66A17B9
:100F1000B94206000F00FFB27F09FFB23B0089B261
:100F200011F01F073C000127A7403D00012B01D114
:100F30000C3604E0022B01D1103600E0143652B218
:100F4000002A03D037682F43376002E03768AF4389
:100F50003760F0BC70470200002089B2B1F5007F15
:100F600013880B4202D00123180001E0002318006F
:100F700040B2704770B40200002300250024002016
:100F800089B240F66A16B1420E00F6B27609F6B2A0
:100F9000340089B211F01F063500012616FA05F556
:100FA000012C02D19689354006E0022C02D1168A26
:100FB000354001E0968A354089B20E0AB6B2330058
:100FC000012616FA03F316883340002D04D0002BB7
:100FD00002D00126300001E00026300040B270BC93
:100FE000704750F8041B61B150F8042BD30744BF7D
:100FF000A9F101039A18002342F8043B091FFAD112
:10100000EFE7704710B504003648844208D101214B
:101010000120FFF7D6FB00210120FFF7D2FB60E0A3
:101020003148844208D101210220FFF7CAFB002188
:101030000220FFF7C6FB54E02C48844208D101216E
:101040000420FFF7BEFB00210420FFF7BAFB48E0B5
:101050002748844208D101210820FFF7B2FB002174
:101060000820FFF7AEFB3CE02248844208D1012172
:101070001020FFF7A6FB00211020FFF7A2FB30E0B5
:101080001D48844208D101212020FFF79AFB00214E
:101090002020FFF796FB24E01848844208D1012164
:1010A0004020FFF78EFB00214020FFF78AFB18E06D
:1010B0001348844208D101218020FFF782FB0021E0
:1010C0008020FFF77EFB0CE00E48844209D101210D
:1010D0004FF48070FFF775FB00214FF48070FFF72D
:1010E00070FB10BD000002400004024000080240F6
:1010F000000C0240001002400014024000180240A0
:10110000001C024000200240F0B400220023002412
:1011100000252A00102A51D2012595402B000D6888
:101120001D402C009C4247D1056803261700FFB2E2
:101130007F00BE40B5430560056891F90460170063
:10114000FFB27F00BE403543056091F90450012D88
:1011500003D091F90450022D1DD185680326170094
:10116000FFB27F00BE40B5438560856891F9056098
:101170001700FFB27F00BE403543856045680126F9
:101180009640B5434560456891F90660B6B2964011
:10119000B6B235434560C56803261700FFB27F002D
:1011A000BE40B543C560C56891F907601700FFB23E
:1011B0007F00BE403543C560521CABE7F0BC7047B2
:1011C000F0B400230024D2B211F00705EDB2AD0057
:1011D00012FA05F52B0089B2CD1010EB850589B206
:1011E000CE1010EB8606366A0F2711F0070C5FFA57
:1011F0008CFC5FEA8C0C17FA0CF7BE432E6289B2A6
:10120000CD1010EB85052D6A1D432C0089B2CD1041
:1012100010EB85052C62F0BC704700001D490143AE
:101220001D4A11607047F0B4002300210F2290F98D
:101230000340002C21D0184C246814F4E064D4F549
:10124000E064240A2300D3F104042100D2B21A413D
:1012500044788C4023008478144023431B01047895
:101260000E4D6355047864110D4D0126077817F073
:101270001F07BE4045F8246009E004786411094D59
:101280000126077817F01F07BE4045F82460F0BC20
:10129000704700000000FA050CED00E000E400E0FB
:1012A00000E100E080E100E005480068002800D18E
:1012B00072B603480068401C01490860704700BFCF
:1012C000E808002004480068401E03490860002820
:1012D00000D162B6704700BFE808002070B5040076
:1012E0000D00160032002900200000F037F8200021
:1012F00070BD000062F30F2262F31F42401810F02D
:10130000030308D0C91A1FD3DB0748BF00F8012D1B
:1013100028BF20F8022D130030B4144615461039AA
:1013200028BF20E93C00FAD8490728BF20E90C0073
:1013300048BF40F8042D890028BF20F8022D48BF7F
:1013400000F8012D30BC7047C91818BF00F8012DF6
:10135000CB0728BF00F8012D7047000062B38B0750
:1013600008D0521E11F8013B00F8013B00F0248028
:101370008B07F6D1830740F0208000BF103A07D3D7
:1013800030B4B1E83810103AA0E83810F9D230BCC7
:10139000530724BFB1E80810A0E8081044BF51F873
:1013A000043B40F8043BD20724BF31F8022B20F85D
:1013B000022B44BF0B7803707047083A07D3B1E89B
:1013C0000810083A40F8043B40F804CBF7D2530722
:1013D000E4E7000000B591B0DFF82404006830F4C1
:1013E0007040DFF81C14086003208DF8090000200D
:1013F0008DF80B0000208DF80A0001208DF8080000
:101400004FF47040019001A9DFF8F803FFF77CFE6C
:1014100003208DF808004FF4FF60019001A9DFF868
:10142000E403FFF771FE01214FF48060FFF7BAF982
:1014300000200690002007900020089000200990CE
:1014400006A800F023FA00200A9000208DF82C0056
:1014500000208DF82D0000200C9000200E9001201F
:101460008DF83C000AA9DFF8A00300F0E5F912208E
:101470008DF8000001208DF8010005208DF8020094
:1014800001208DF8030000A8FFF7CDFE03A800F0AF
:10149000AEFB01212020FFF776F9DFF8700300F0A2
:1014A000B3FA4E20049042F2CF00ADF80C000020B9
:1014B000ADF814000020ADF80E0003A9DFF84C03CE
:1014C00000F060FB0121DFF8440300F032FC37201C
:1014D0008DF8000001208DF8010006208DF8020033
:1014E00001208DF8030000A8FFF79DFE012240F2C5
:1014F0000521DFF8140300F06FFA0121DFF808037B
:1015000000F0D5F911B000BD10B5DFF804030021DB
:10151000018020220021DFF8FC02FFF7D3FBDFF877
:10152000F8020021018008220021DFF8F002FFF715
:10153000C9FBDFF8CC02006804002405240D54F434
:10154000A044AF48A4B2046000230122DFF8C00227
:101550000088DFF8CC12415CAB4800F0B5F9DFF849
:10156000C4024E2101600021A84800F04CFB01217B
:10157000A64800F0DEFB01220121A44800F0CEFBCA
:101580000121A24800F041FB10BD80B59E4800F04B
:1015900016FA01219D4800F0CCFB01BD10B50020DA
:1015A00080B203280ADA80B29C4911EB40014988D5
:1015B00080B29A4A22F81010401CF1E797489A49E5
:1015C0000968C18094480088401C9349088092486B
:1015D0000088042190FBF1F202FB11028E48028088
:1015E0008D480088002821D18C4949888B4A9288EF
:1015F00012FA81F14910080041F28831484340F65F
:10160000FF71B0FBF1F082490988824A22F811008B
:101610007F490988491C7E4A11807D49098810222A
:1016200091FBF2F303FB121379490B8074480068B5
:1016300004002405240D76480088042802DA54F4B6
:10164000A04417E072480088042806DB7048008830
:10165000082802DA54F420440CE06D480088082879
:1016600006DB6B4800880C2802DA54F4A04401E041
:1016700054F420446248A4B2046000230122644868
:1016800000886749415C604800F01EF902215E480D
:1016900000F0B6F910BD10B504006448006850F0C1
:1016A000080062490860642000F015FD5F4800688A
:1016B00030F008005D4908604FF4C87000F00BFD81
:1016C000FFF788FEFFF720FF594800F090FD002843
:1016D000FAD057488078C0B2A4B2A042F4D154489E
:1016E000408810F4706080B200281FD0B0F5807F71
:1016F00034D0B0F5806F09D0B0F5A06F46D0B0F50A
:10170000C06F5BD0B0F5E06F70D077E049484849D2
:101710004988418000F024FF4649486000F072FF8C
:1017200044498860434801F096F8CDE74148404974
:10173000498841803F483749098881803D4835497B
:101740004988C1803B4833498988018139483149FA
:10175000C9884181374801F07EF8B5E735483449FA
:101760004988418033482B4909898180314829497A
:101770004989C1802F482749898901812D482549F8
:10178000C98941812B4801F066F89DE7294828491D
:101790004988418027481F49098A818025481D4979
:1017A000498AC18023481B49898A018121481949F6
:1017B000C98A41811F4801F04EF885E71D481C4940
:1017C000498841801B481349098B81801948114978
:1017D000498BC18017480F49898B018115480D49F4
:1017E000C98B4181134801F036F86DE71148104963
:1017F000498841800F4801F02EF865E764E7000052
:101800001414024000140240002201400014004061
:10181000FC08002028080020FE080020C008002046
:10182000D03800082C1400404C220140141802400B
:10183000700800208008002030B400230022446893
:101840002300614C234091F904400D6855EA0424BB
:1018500023434360846823005C4C23400C69CD68BB
:101860002C438D682C4391F9055054EA45042343D9
:101870008360C46A230033F470030C7D641E22432A
:10188000D2B253EA0253C36230BC70470021504ABF
:10189000126811004F4A1140026843681A43836876
:1018A0001A43C3681A431143494A1160704749B249
:1018B000002904D0826852F00102826003E082684D
:1018C0005208520082607047F0B400250024C9B26B
:1018D0000A2917DBC66835000726B1F10A075FF051
:1018E000030C17FB0CF7BE403400A543DBB2B1F18B
:1018F0000A06032716FB07F613FA06F634002543FB
:10190000C56011E0066935000726032711FB07F7BC
:10191000BE403400A543DBB2032611FB06F613FAE2
:1019200006F6340025430561D2B2072A15DA466B64
:1019300035001F26571E5FF0050C17FB0CF7BE4045
:101940003400A543C9B2561E052716FB07F611FA47
:1019500006F63400254345632FE0D2B20D2A15DA8E
:10196000066B35001F26D71F5FF0050C17FB0CF721
:10197000BE403400A543C9B2D61F052716FB07F6A3
:1019800011FA06F634002543056316E0C66A3500F1
:101990001F26B2F10D075FF0050C17FB0CF7BE40D8
:1019A0003400A543C9B2B2F10D06052716FB07F6B0
:1019B00011FA06F634002543C562F0BC7047816811
:1019C00051F0804181607047FFFEFFFCFDF7FFC0D2
:1019D00004230140E030FCFF10B400230C00E4B20B
:1019E0002300012414FA03F352B2002A03D04468FE
:1019F0001C43446002E044689C43446010BC704750
:101A0000C9B2CA430260704710B50400DFF818027B
:101A1000844208D101210120FEF7F1FE00210120BE
:101A2000FEF7EDFEADE0B4F1804F08D101210120B9
:101A3000FEF7D6FE00210120FEF7D2FEA1E0DFF87E
:101A4000EC01844208D101210220FEF7C9FE0021E9
:101A50000220FEF7C5FE94E0DFF8D401844208D1ED
:101A600001210420FEF7BCFE00210420FEF7B8FE91
:101A700087E0DFF8C001844208D101210820FEF789
:101A8000AFFE00210820FEF7ABFE7AE0DFF8A801E8
:101A9000844208D101211020FEF7A2FE002110206F
:101AA000FEF79EFE6DE0DFF89401844208D101212B
:101AB0002020FEF795FE00212020FEF791FE60E039
:101AC000DFF87C01844208D101210220FEF797FE55
:101AD00000210220FEF793FE53E0DFF86801844204
:101AE0000AD101215FF48030FEF789FE00215FF406
:101AF0008030FEF784FE44E0DFF84C0184420AD1D6
:101B000001215FF40030FEF77AFE00215FF400301F
:101B1000FEF775FE35E0DFF8340184420AD1012179
:101B20005FF48020FEF76BFE00215FF48020FEF75B
:101B300066FE26E0DFF81801844208D1012140202A
:101B4000FEF74EFE00214020FEF74AFE19E0DFF8C6
:101B50000401844208D101218020FEF741FE0021CA
:101B60008020FEF73DFE0CE03B48844209D1012174
:101B70004FF48070FEF734FE00214FF48070FEF7C2
:101B80002FFE10BD002203881A00274B98420ED06A
:101B90002B4B98420BD0B0F1804F08D0234B98428A
:101BA00005D0234B984202D0224B984204D14FF6E5
:101BB0008F731A404B881A431F4B984207D01F4B14
:101BC000984204D04FF6FF431A400B891A43028013
:101BD0004B68C3620B880385134B984202D0184BA5
:101BE000984201D18B7A03860123838270475FF08C
:101BF000FF314160002101800021018100214180ED
:101C00000021817270474162704749B2002904D0B7
:101C1000028852F00102028004E002884FF6FE734F
:101C20001A4002807047000000000140000400409C
:101C300000080040000C004000100040001400406C
:101C400000040140004001400044014000480140C0
:101C500000180040001C00400020004038B504007F
:101C60000D00288800280AD12B89AA8869882000BD
:101C700000F063F8E988200000F02AF825E02888C1
:101C800004280AD12B89AA886988200000F071F8FD
:101C9000E988200000F025F817E0288808280AD1F4
:101CA0002B89AA886988200000F084F8E988200040
:101CB00000F021F809E02B89AA886988200000F04B
:101CC00099F8E988200000F01FF831BD806B70475B
:101CD000028B4FF6F3731A400283028B0A4302838E
:101CE0007047028B4FF2FF331A400283028B52EA95
:101CF000012202837047828B4FF6F3731A4082836E
:101D0000828B0A4382837047828B4FF2FF331A40E3
:101D10008283828B52EA01228283704752B2002A68
:101D200003D083890B43838102E083898B438381C2
:101D3000704789B2CA4302827047F0B4002400257C
:101D4000068C4FF6FE773E400684068B3400068CE8
:101D500035004FF60C76344052EA031634434FF602
:101D6000F576354051F00106354304830584F0BC17
:101D70007047F0B4002500260024078C4FF6EF7C56
:101D80001CEA07070784078B3D00078C3E000F0104
:101D90003C0040F6FF473D4055EA033555EA022531
:101DA0004FF65F773E4054F010073E4305830684AC
:101DB000F0BC7047F0B4002600240025078C4FF6D5
:101DC000FF6C1CEA07070784878B3E00078C3C00EA
:101DD0000F023D004FF60C773E4052EA03173E4398
:101DE0004FF2FF573C4055F480773C438683048490
:101DF000F0BC7047F0B4002500260024078C4EF696
:101E0000FF7C1CEA07070784878B3D00078C3E0098
:101E10000F033C0040F6FF473D4055EA022555EAD6
:101E2000033545F6FF773E4054F480573E438583A3
:101E30000684F0BC7047000040B2002809D540B2CB
:101E400010F00F02DFF89C32D2180B0102F8043CAC
:101E500004E040B2DFF890220B018354704710B5C4
:101E60000400B4F1807F01D3012013E02002000AB6
:101E7000401EDFF8781208600F215FF0FF30FFF797
:101E8000DBFFDFF86C0200210160DFF86802072148
:101E90000160002010BD82B0002001900020009061
:101EA000DFF85402006850F48030DFF84C1208600C
:101EB000DFF84402006810F4003000900198401CE4
:101EC00001900098002803D10198B0F5A06FEFD1E0
:101ED000DFF824020068800302D50120009001E0B1
:101EE000002000900098012851D1DFF8100200680E
:101EF00050F08050DFF804120860DFF80402006838
:101F000050F48040DFF8F8110860DFF8F801DFF8DE
:101F1000F41109680160DFF8EC01006850F400403A
:101F2000DFF8E0110860DFF8DC01006850F4A05031
:101F3000DFF8D0110860DFF8D001DFF8D0110160C0
:101F4000DFF8B401006850F08070DFF8AC11086071
:101F5000DFF8A40100688001FAD5DFF8B40140F28F
:101F600005610160DFF89C01006880088000DFF8EF
:101F700094110860DFF88C01006850F0020061499C
:101F800008606048006810F00C000828F9D102B021
:101F9000704780B55848006850F001005649086005
:101FA000584800210160544800685A490840524985
:101FB00008605548584901604F48006830F4802057
:101FC0004D490860554800210160FFF764FF5448FF
:101FD0005FF0006101604FF44070FFF71FF9514856
:101FE000FFF710F85048FFF70DF85048FFF70AF8D0
:101FF0004F48FFF707F84F48FFF704F84E48FFF740
:1020000001F84E48FEF7FEFF4D48FEF7FBFF4D4836
:10201000FEF7F8FF01210120FEF7A6FB01210220B7
:10202000FEF7A2FB01210420FEF79EFB0121082000
:10203000FEF79AFB01211020FEF796FB01212020DC
:10204000FEF792FB01214020FEF78EFB01214FF4A9
:102050008040FEF7A7FB00203B4908603B49086031
:1020600000203B4908603B49086000203A4908606D
:102070003A49086000203A4908603A49086000205F
:1020800039490860394908600020394908603949F0
:1020900008600020384908603849086001BD10B563
:1020A0000400002036490860364908603649086057
:1020B0003648B0FBF4F0FFF7D2FE002800D0FEE770
:1020C00010BD2F480068002804D02D480068401E2D
:1020D0002B49086070472A49086029490968002986
:1020E000FBD1704718ED00E000E400E014E000E0F0
:1020F00018E000E010E000E0003802404038024004
:10210000007000400838024004380240195440076B
:10211000003C0240FFFFF6FE103000240C38024065
:1021200008ED00E000000240000402400008024008
:10213000000C02400010024000140240001802404F
:10214000001C024000200240240002402000024007
:1021500024040240200402402408024020080240D7
:10216000240C0240200C02402410024020100240A7
:102170002414024020140240241802402018024077
:10218000F0080020F4080020F8080020007A030A74
:102190000020284908702849087070470FB5264864
:1021A0000078401C202190FBF1F202FB1102214833
:1021B0000078824201D1002017E01F4800781F49B3
:1021C00011EB001000A91022FFF7D8F81A48007888
:1021D000401C1949087018480078202190FBF1F242
:1021E00002FB110214480270012004B000BD10B5BA
:1021F0000400114800780F490978884218D020005F
:102200000C4909780D4A12EB01111022FFF7B6F8BC
:1022100008480078401C07490870064800782021CB
:1022200090FBF1F202FB110202480270012000E073
:10223000002010BD0F0900200E0900201000002012
:1022400000B589B0DFF8C403006830F47060DFF8CF
:10225000BC13086003208DF8050000208DF80600EF
:1022600001208DF8070000208DF804004FF4706005
:10227000009000A9DFF89803FEF746FFDFF894030B
:102280000068C008C000DFF88C13086003208DF8D8
:10229000050000208DF8060000208DF807000020C2
:1022A0008DF804000720009000A9DFF86C03FEF70A
:1022B0002BFFDFF86003006830F00800DFF85413EC
:1022C000086003208DF8050000208DF8060000202E
:1022D0008DF8070001208DF804000820009000A967
:1022E000DFF83403FEF710FFDFF83003006850F426
:1022F0000060CA49086003208DF8050000208DF8B1
:10230000060001208DF8070000208DF804004FF42E
:102310000060009000A9C248FEF7F6FEBF480068C2
:1023200050F48050BD49086003208DF8050000205E
:102330008DF8060000208DF8070001208DF80400BC
:102340004FF48050009000A9B548FEF7DDFE012152
:102350000220FEF718FAB148006830F02000AF49BB
:10236000086003208DF8050000208DF8060000208D
:102370008DF8070002208DF804002020009000A9AD
:10238000A748FEF7C1FE02220521A548FEF718FF67
:1023900006A8FFF72CFC42F2CF00ADF8180049F672
:1023A0004040079006A99F48FFF7ECFB0420ADF8DA
:1023B0000C000020ADF80E000120ADF81000002048
:1023C000ADF812000820ADF8140003A99548FFF7F6
:1023D00045FC1D208DF8080000208DF80900012023
:1023E0008DF80A0001208DF80B0002A8FEF71BFFF4
:1023F000012205218B48FFF791FC01210420FEF703
:10240000C2F98648006830F08000844908600320E3
:102410008DF8050000208DF8060000208DF80700DB
:1024200002208DF804008020009000A97C48FEF76F
:102430006BFE022207217A48FEF7C2FE06A8FFF7CC
:10244000D6FB42F2CF00ADF8180049F640400790A5
:1024500006A97548FFF796FB0420ADF80C00002094
:10246000ADF80E000120ADF810000020ADF812000C
:102470000820ADF8140003A96B48FFF7EFFB1E20FE
:102480008DF8080000208DF8090002208DF80A0060
:1024900001208DF80B0002A8FEF7C5FE01220521E0
:1024A0006148FFF73BFC01215E48FFF7AEFB0121CD
:1024B0005D48FFF7AAFB5D48006810F0070009B00F
:1024C00000BD80B55A480088C0070BD55948002187
:1024D0000180002058490880584908805848002148
:1024E000016038E05348008800280CD100214D4895
:1024F000FFF789FB4B48FFF7E9FB4F4908804D4840
:102500000121018027E04748FFF7E0FB4B490880A5
:102510004A4800884849098888420BD24FF6FF7024
:1025200045490988401A4549098810FA81F045490A
:10253000086006E0414800883F490988401A41493F
:10254000086041483F490968B0FBF1F03C49086028
:1025500038480021018005213248FFF7EAFB01BD20
:1025600037480068704780B538480088C0070BD5E9
:10257000374800210180002036490880364908800C
:1025800036480021016038E03148008800280CD12D
:1025900000212548FFF737FB2348FFF797FB2D491C
:1025A00008802B480121018027E01F48FFF78EFBA0
:1025B00029490880284800882649098888420BD282
:1025C0004FF6FF7023490988401A2349098810FAF9
:1025D00081F02349086006E01F4800881D490988EA
:1025E000401A1F49086018481D490968B0FBF1F0FE
:1025F0001A49086016480021018005210A48FFF7A2
:1026000098FB01BD15480068704700001410024097
:102610000010024014180240001802401404024046
:10262000000402400004004000080040101802406E
:1026300010040040020900200409002006090020BF
:10264000D0080020CC080020A0860100100800401F
:10265000080900200A0900200C090020D8080020E1
:10266000D408002000B58DB001215FF00070FEF7A6
:102670008AF8BC48FDF788FD09220821BA48FEF710
:102680009FFD09220921B848FEF79AFD03208DF825
:10269000150000208DF8160000208DF8170002208C
:1026A0008DF814004FF48070049004A9AE48FEF732
:1026B0002BFD4FF40070049004A9AB48FEF724FDF5
:1026C00001A8FDF799FE00208DF80A0000208DF882
:1026D0000B0000208DF80C0000208DF80D0000206C
:1026E0008DF80E0000208DF80F0000208DF80600F8
:1026F00000208DF8070005208DF8080007208DF8D0
:1027000009000420ADF8040001A99648FDF758FD22
:1027100000208DF8220000208DF8230001208DF884
:1027200024000020ADF818000020ADF81A000020A9
:10273000ADF81C000020ADF81E000020ADF8200010
:1027400001208DF8250006A8FDF7CCFD14208DF89A
:10275000000000208DF8010007208DF80200012004
:102760008DF8030000A8FEF75EFD012202217D48DE
:10277000FDF760FF0AA8FFF73AFA01210120FEF7F2
:1027800002F85FF08040FFF73FF940F6C4100B906D
:1027900042F2CF00ADF828000020ADF83000002054
:1027A000ADF82A000AA95FF08040FFF7EBF901219C
:1027B0005FF08040FFF7BDFA01208DF803001C2078
:1027C0008DF8000002208DF8010000208DF8020035
:1027D00000A8FEF728FD0DB000BD00B585B0634A26
:1027E00000216048FDF7B2FE6048007A00282AD137
:1027F0005E48807A082826D15D48007810F0FB00FA
:102800005B4908704AF65520ADF80000574800684B
:10281000ADF802000020C0B2082809DAC0B200A951
:102820004118C0B2514A8218D27A0A71401CF2E7AC
:1028300000A80FC8FFF7B2FC4D48007850F0020026
:102840004B49087005E04A48007850F004004849B8
:10285000087005B000BD10B50400608845490860E7
:102860004448002141604348002101724148002151
:102870004172404808218172002080B2082808DA9D
:1028800080B20119097980B23A4A8218D172401C8B
:10289000F3E73748007810F0FD00354908703549F6
:1028A0003048FDF7C0FD042801D1002013E0FA20D4
:1028B00000F012F82E480078C0F3C000C0B2002823
:1028C00001D0002007E02A480078C0F34000C0B2E1
:1028D0000028EFD0012010BD10B504002448007876
:1028E00010F0F7002249087000215FF08040FFF7E8
:1028F0008AF9A4B20A2000FB04F01F4908600121F4
:102900005FF08040FFF715FA012201215FF080405F
:10291000FFF704FA01215FF08040FFF776F910BD60
:1029200080B500215FF08040FFF76FF900220121A0
:102930005FF08040FFF7F2F901215FF08040FFF780
:10294000F8F901BD80B50A48007850F00800084940
:102950000870FFF7E5FF01215FF08040FFF7E9F91C
:1029600001BD000000640040000402405C0800203B
:10297000EC080020480800202C000040FEE7FEE79D
:10298000FEE7FEE7FEE7FEE7FEE7FEE780B5FFF7BE
:1029900098FB01BD80B5FEF787FCFEF793FC01BDF7
:1029A00080B5FEF781FCFEF78DFC01BD80B5FEF71A
:1029B0007BFCFEF787FC01BD80B5FEF775FCFEF7DA
:1029C00081FC01BD80B5FEF76FFCFEF77BFC01BD0D
:1029D00080B5FEF769FCFEF775FC01BD80B5FEF71A
:1029E00063FCFEF76FFC01BD80B5FEF75DFCFEF7F2
:1029F00069FC01BD80B5FEF757FCFEF763FC01BD25
:102A000080B5FEF751FCFEF75DFC01BD80B5FEF719
:102A10004BFCFEF757FC01BD80B5FEF745FCFEF709
:102A200051FC01BD80B5FEF73FFCFEF74BFC01BD3C
:102A300080B5FEF739FCFEF745FC01BD80B5FEF719
:102A400033FCFEF73FFC01BD80B5FEF72DFCFEF721
:102A500039FC01BD80B5FEF727FCFEF733FC01BD54
:102A600080B5FEF721FCFEF72DFC01BD80B5FEF719
:102A70001BFCFEF793FDFEF725FC01BD80B5FEF7BC
:102A800013FCFEF71FFC01BD80B5FEF70DFCFFF740
:102A9000A4FEFEF717FC01BD80B5FEF705FCFEF7AE
:102AA00011FC01BD80B5FEF7FFFBFEF70BFC01BD7D
:102AB00080B5FEF7F9FBFEF705FC01BD80B5FEF71A
:102AC000F3FBFEF7FFFB01BD80B5FEF7EDFBFEF764
:102AD000F9FB01BD80B5FEF7E7FBFEF7F3FB01BD97
:102AE00080B5FEF7E1FBFEF7EDFB01BD80B5FEF71B
:102AF000DBFBFFF727FFFEF7E5FB01BD80B5FEF727
:102B0000D3FBFFF7DEFCFEF7DDFB01BD80B5FEF772
:102B1000CBFBFFF728FDFEF7D5FB01BD80B5FEF727
:102B2000C3FBFEF7CFFB01BD80B5FEF7BDFBFEF793
:102B3000C9FB01BD80B5FEF7B7FBFEF7C3FB01BDC6
:102B400080B5FEF7B1FBFEF7BDFB01BD80B5FEF71A
:102B5000ABFBFEF7B7FB01BD80B5FEF7A5FBFEF7AB
:102B6000B1FB01BD80B5FEF79FFBFDF71CFFFEF733
:102B7000A9FB01BD80B5FEF797FBFEF7A3FB01BDE6
:102B800080B5FEF791FB00F0B3F9FEF79BFB01BDAA
:102B900080B5FEF789FBFEF795FB01BD80B5FEF71A
:102BA00083FBFEF78FFB01BD80B5FEF77DFBFEF7D3
:102BB00089FB01BD80B5FEF777FBFEF783FB01BD06
:102BC00080B5FEF771FBFEF77DFB01BD80B5FEF71A
:102BD0006BFBFEF777FB01BD80B5FEF765FBFEF7EB
:102BE00071FB01BD80B5FEF75FFBFEF76BFB01BD1E
:102BF00080B5FEF759FBFEF765FB01BD80B5FEF71A
:102C000053FBFEF75FFB01BD80B5FEF74DFBFEF702
:102C100059FB01BD80B5FEF747FBFEF753FB01BD35
:102C200080B5FEF741FBFEF74DFB01BD80B5FEF719
:102C30003BFBFEF747FB01BD80B5FEF735FBFEF71A
:102C400041FB01BD80B5FEF72FFBFEF79EFCFEF7B2
:102C500039FB01BD80B5FEF727FBFEF733FB01BD55
:102C600080B5FEF721FBFEF72DFB01BD80B5FEF719
:102C70001BFBFEF727FB01BD80B5FEF715FBFEF73A
:102C800021FB01BD80B5FEF70FFBFEF71BFB01BD6D
:102C900080B5FEF709FBFEF715FB01BD80B5FEF719
:102CA00003FBFEF70FFB01BD80B5FEF7FDFAFEF753
:102CB00009FB01BD80B5FEF7F7FAFEF703FB01BD86
:102CC00080B5FEF7F1FAFEF7FDFA01BD80B5FEF71B
:102CD000EBFAFEF7F7FA01BD80B5FEF7E5FAFEF76D
:102CE000F1FA01BD80B5FEF7DFFAFEF7EBFA01BDA0
:102CF00080B5FEF7D9FAFEF7E5FA01BD80B5FEF71B
:102D0000D3FAFEF7DFFA01BD80B5FEF7CDFA00F089
:102D100078FAFEF7D7FA01BD80B5FEF7C5FAFEF7DF
:102D2000D1FA01BD80B5FEF7BFFAFEF7CBFA01BDBF
:102D300080B5FEF7B9FAFEF7C5FA01BD80B5FEF71A
:102D4000B3FAFEF7BFFA01BD80B5FEF7ADFAFEF7A4
:102D5000B9FA01BD80B5FEF7A7FAFEF7B3FA01BDD7
:102D600080B5FEF7A1FAFEF7ADFA01BD80B5FEF71A
:102D70009BFAFEF7A7FA01BD80B5FEF795FAFEF7BC
:102D8000A1FA01BD80B5FEF78FFAFEF79BFA01BDEF
:102D900010B588B004000020DFF8BC120880DFF80E
:102DA000B81248800020DFF8B4120880DFF8AC12B7
:102DB0004880DFF8AC020021016010220021DFF81A
:102DC000A402FDF77FFFDFF8A002FDF79DFF0722B9
:102DD0000821DFF89802FEF7F3F907220921DFF84E
:102DE0008C02FEF7EDF900208DF80A0001208DF825
:102DF0000B0002208DF8080003208DF809004FF425
:102E00008070019001A9DFF86402FEF77DF94FF4AC
:102E10000070019001A9DFF85402FEF775F9012155
:102E20005FF48020FDF7AFFC03A8FEF745F803949C
:102E30000020ADF810000020ADF812000020ADF821
:102E400014000C20ADF816000020ADF8180003A9FE
:102E5000DFF81402FDF7AAFF27208DF800000020FC
:102E60008DF8010007208DF8020001208DF8030085
:102E700000A8FEF7D8F901222821DFF8EC01FEF7BF
:102E80003FF8012240F22771DFF8DC01FEF738F845
:102E9000012240F22551DFF8D001FEF731F800227F
:102EA00040F22661DFF8C001FEF72AF8002240F266
:102EB0002441DFF8B401FEF723F8002240F6460172
:102EC000DFF8A401FEF71CF8002240F66A11DFF8D3
:102ED0009801FEF715F800226021DFF88C01FEF75B
:102EE0000FF80121DFF88001FDF7F4FF08B010BDF5
:102EF00080B508215C48FEF72EF8002808D05A4813
:102F0000FDF7FAFF5648006850F002005449086087
:102F100004215548FEF71FF8002805D10221524828
:102F2000FEF719F8002808D04F48FDF7E5FF4C4898
:102F3000006850F008004A49086001214A48FEF73D
:102F40000AF8002808D04848FDF7D6FF4448006832
:102F500050F004004249086020214348FDF7FBFF80
:102F600000280DD04048FDF7C7FFC0B200F048F878
:102F7000002805D13A48006850F00200384908603E
:102F800080213948FDF7E7FF002818D040F227716B
:102F90003548FDF7EFFF002811D000A800F010F829
:102FA000002806D09DF8001089B22F48FDF7A0FF39
:102FB00005E0002240F227712B48FDF7A1FF01BD7B
:102FC000010026480088254A5288904201D10020FD
:102FD00015E022484088214A8018007908701F486F
:102FE0004088401C1D4A50801C4840884FF4807225
:102FF00090FBF2F303FB1203184843800120704753
:1030000010B4010014480088421C92B24FF480733F
:10301000100090FBF3F202FB13020F48408892B2BB
:10302000824201D1002014E00B4800880A4BC018EE
:10303000017109480088401C074B18800648008829
:103040004FF4807390FBF3F404FB130402480480F4
:10305000012010BC70470000180400201C0500204F
:10306000E0080020A008002000480040000C0240BA
:1030700010B588B004000020DFF8FC120880DFF8EB
:10308000F81248800020DFF8F4120880DFF8EC1214
:103090004880DFF8EC020021016010220021DFF8F7
:1030A000E402FDF70FFEDFF8E002006830F4807004
:1030B000DFF8D412086003208DF8050000208DF899
:1030C000060000208DF8070001208DF804004FF461
:1030D0008070009000A9DFF8B402FEF715F8DFF861
:1030E000B002FDF711FE08220621DFF8A802FEF764
:1030F00067F808220721DFF89C02FEF761F800203C
:103100008DF8060001208DF8070002208DF80400DC
:1031100003208DF805004020009000A9DFF874021C
:10312000FDF7F2FF8020009000A9DFF86802FDF7AC
:10313000EBFF01212020FDF735FB03A8FDF7BCFEC6
:1031400003940020ADF810000020ADF8120000201C
:10315000ADF814000C20ADF816000020ADF81800F2
:1031600003A9DFF82C02FDF721FE47208DF80800A7
:1031700000208DF8090007208DF80A0001208DF845
:103180000B0002A8FEF74FF801222821DFF8000209
:10319000FDF7B6FE012240F22771DFF8F401FDF7DA
:1031A000AFFE012240F22551DFF8E401FDF7A8FE51
:1031B000002240F22661DFF8D801FDF7A1FE0022CF
:1031C00040F22441DFF8C801FDF79AFE002240F6E4
:1031D0004601DFF8BC01FDF793FE002240F66A11BC
:1031E000DFF8AC01FDF78CFE00226021DFF8A001C2
:1031F000FDF786FE0121DFF89801FDF76BFE08B0B0
:1032000010BD80B50821DFF88801FDF7A4FE002875
:1032100009D0DFF87C01FDF76FFE5948006850F0D7
:1032200002005749086004215948FDF794FE002820
:1032300005D102215648FDF78EFE002808D05448DB
:10324000FDF75AFE4E48006850F008004C490860EF
:1032500001214F48FDF77FFE002808D04C48FDF7BC
:103260004BFE4748006850F00400454908602021A3
:103270004748FDF770FE00280DD04548FDF73CFE9D
:10328000C0B200F04EF8002805D13D48006850F06B
:1032900002003B49086080213D48FDF75CFE0028A4
:1032A0001ED040F227713A48FDF764FE002817D07F
:1032B00000A800F016F8002806D09DF8001089B28A
:1032C0003348FDF715FE0BE0002240F2277130482D
:1032D000FDF716FE2C48006830F480702A4908601B
:1032E00001BD010025480088244A5288904201D13E
:1032F000002015E021484088204A80180079087095
:103300001E484088401C1D4A50801C4840884FF48D
:10331000807290FBF2F303FB1203184843800120F4
:10332000704710B4010014480088421C92B24FF458
:103330008073100090FBF3F202FB13020E484088EA
:1033400092B2824201D1002014E00B4800880A4B5F
:10335000C018017108480088401C074B18800648B7
:1033600000884FF4807390FBF3F404FB13040248CD
:103370000480012010BC7047200600202407002094
:10338000E4080020B0080020141802400018024091
:10339000001401400008024080B5FDF785FF4FF49E
:1033A0007A70FEF77CFE764800210160FDF78AFF07
:1033B000FEF746FF012804D0022806D0042808D0D2
:1033C0000BE07048102101800AE06E483021018036
:1033D00006E06C482021018002E06A48002101805B
:1033E00069480068C0F3032090F00F006549098820
:1033F00008436649086064480068C0F3032090F001
:103400000F00012806D16248006830F480506049FE
:10341000086005E05E48006850F480505C49086030
:10342000FEF7B6FE4FF46140FDF70EFA4FF461402F
:10343000FFF7AEFC4FF46140FFF71AFEFFF712F9F9
:103440005448006850F0080052490860C820FEF750
:1034500042FE5048006830F008004E490860C8201D
:10346000FEF739FE47480088102804D020280ED0E7
:10347000302806D011E04548006880B2FEF70BF90D
:1034800010E04248006880B200F0A3F80AE03F482C
:10349000006880B200F02BF904E03C48006880B27C
:1034A00000F001F801BD10B504003B48FDF72EFB0C
:1034B0000028FAD038488078C0B2A4B2A04234D1F3
:1034C0003348006850F480503149086032484088E1
:1034D00010F4706080B2B0F5806F03D0B0F5E06F8B
:1034E00011D019E02D482C4949884180FFF738F860
:1034F0002A494860FFF786F8284988600121274853
:10350000FDF7B9FAD1E725482349498841800121CF
:103510002248FDF7B0FAC8E720481F494988418092
:1035200000211E48FDF7A7FABFE71948006830F4EC
:103530008050174908601848FFF78DF9002815D00A
:103540001648FEF754FE0028AFD0144800884AF60B
:1035500055218842A9D1114840880F49498888429D
:10356000A3D101210D48FDF786FA9EE70B480A49D1
:103570004988418000210948FDF77DFA95E7000060
:10358000EC0800200009002010100240C8080020AC
:103590001404024014180240700800208008002023
:1035A00000B583B03F480021016003208DF805007D
:1035B00000208DF8070000208DF8060000208DF80F
:1035C00004004FF6FF70009000A93748FDF79CFDFE
:1035D00007BD10B504003648006850F008003449B3
:1035E00008606420FEF777FD3148006830F008007D
:1035F0002F4908604FF4C870FEF76DFD2C48006835
:1036000050F008002A4908606420FEF764FD28484D
:10361000006830F00800264908604FF4C870FEF7D3
:103620005AFDFFF7BDFF2348FEF7E1FD0028FAD061
:1036300020488078C0B2A4B2A042F4D11D4840888E
:1036400010F4706080B2B0F5407F16D0B0F5806F96
:1036500003D0B0F5E06F1CD023E017481549498826
:103660004180FEF77DFF14494860FEF7CBFF124909
:1036700088601148FFF7EFF8D5E70F480D494988F2
:1036800041800D480949096881800B48FFF7E3F83C
:10369000C9E709480749498841800748FFF7DBF82F
:1036A000C1E7C0E7141402400014024010140240A5
:1036B00014180240700800208008002000B583B074
:1036C0005A480021016003208DF8050000208DF884
:1036D000070000208DF8060001208DF804004FF649
:1036E000FF70009000A95248FDF70EFD07BD10B510
:1036F00004005048006850F008004E4908606420FB
:10370000FEF7E9FC4B48006830F0080049490860C2
:103710004FF4C870FEF7DFFC4648006850F0080020
:10372000444908606420FEF7D6FC4248006830F047
:103730000800404908604FF4C870FEF7CCFC3D48D3
:10374000006850F008003B4908606420FEF7C3FCA5
:103750003848006830F00800364908604FF4C870F7
:10376000FEF7B9FCFFF7AAFF3348FEF740FD00283B
:10377000FAD031488078C0B2A4B2A042F4D12F4828
:10378000006830F480502D4908602B48408810F4C0
:10379000706080B2B0F5007F16D0B0F5806F03D0B6
:1037A000B0F5E06F2AD031E02548234949884180AF
:1037B000FEF7D6FE22494860FEF724FF20498860C4
:1037C0001F48FFF748F8CFE71B4880881A49C98887
:1037D000084212D11848C08800F020F816488088A6
:1037E00000F015F8164814494988418014480F49DB
:1037F000096881801248FFF72EF8B5E710480E4996
:10380000498841800E48FFF726F8ADE7ACE7074945
:10381000096880B20143054A11607047034909688D
:1038200080B28143014A11607047000014140240C5
:1038300000140240141802407008002014040240D2
:103840008008002010B5074979441831064C7C44A3
:10385000163404E00A68081D511888470146A14241
:10386000F8D110BD080000002800000077D7FFFF46
:103870000009000010000020000000005FD4FFFFDE
:1038800010000000E4010000000000200000000023
:1038900000F009F8002801D0FFF7D4FF0020FFF75F
:1038A0007BFD00F002F80120704700F001B8000035
:1038B0000746384600F002F8FBE7000080B5C04636
:1038C000C046024A11001820ABBEFBE726000200EA
:1038D000040506070405060708090E0F08090E0F60
:1038E0000148804701480047931F0008F13800084D
:1038F000C046C046C046C046FFF7CAFFFFF73EB805
:10390000FFF73DB8FFF73CB8FFF73BB8FFF73AB811
:10391000FFF739B8FFF738B8FFF737B8FFF736B811
:10392000FFF738B8FFF73CB8FFF740B8FFF744B8E7
:10393000FFF748B8FFF74CB8FFF750B8FFF754B897
:10394000FFF758B8FFF75CB8FFF760B8FFF764B847
:10395000FFF768B8FFF76CB8FFF770B8FFF774B8F7
:10396000FFF778B8FFF77CB8FFF780B8FFF786B8A5
:10397000FFF78AB8FFF790B8FFF794B8FFF798B849
:10398000FFF79CB8FFF7A0B8FFF7A4B8FFF7A8B8F7
:10399000FFF7ACB8FFF7B2B8FFF7B8B8FFF7BEB89B
:1039A000FFF7C2B8FFF7C6B8FFF7CAB8FFF7CEB83F
:1039B000FFF7D2B8FFF7D6B8FFF7DCB8FFF7E0B8EB
:1039C000FFF7E6B8FFF7EAB8FFF7EEB8FFF7F2B88F
:1039D000FFF7F6B8FFF7FAB8FFF7FEB8FFF702B93E
:1039E000FFF706B9FFF70AB9FFF70EB9FFF712B9EB
:1039F000FFF716B9FFF71AB9FFF71EB9FFF722B99B
:103A0000FFF728B9FFF72CB9FFF730B9FFF734B942
:103A1000FFF738B9FFF73CB9FFF740B9FFF744B9F2
:103A2000FFF748B9FFF74CB9FFF750B9FFF754B9A2
:103A3000FFF758B9FFF75CB9FFF760B9FFF764B952
:103A4000FFF76AB9FFF76EB9FFF772B9FFF776B9FA
:103A5000FFF77AB9FFF77EB9FFF782B9FFF786B9AA
:103A6000FFF78AB9FFF78EB90000000001020304D6
:083A7000010203040607080926
:04000005080038F1C6
:00000001FF
