:020000040800F2
:10000000D0150020393A0008A92D0008AB2D0008B2
:10001000AD2D0008AF2D0008B12D00080000000034
:10002000000000000000000000000000BF2D0008DC
:10003000B32D000800000000CB2D0008D72D0008CC
:10004000E72D0008F32D0008FF2D0008012E000801
:100050000D2E0008192E0008252E0008312E00084C
:100060003D2E0008492E0008552E0008612E00087C
:10007000712E00087D2E0008892E0008952E00089C
:10008000A12E0008AD2E0008B92E0008C52E0008CC
:10009000D12E0008E12E0008ED2E0008F92E0008F0
:1000A000052F0008112F00081D2F0008292F000818
:1000B000352F0008412F0008512F0008612F00083C
:1000C0006D2F0008792F0008852F0008912F000858
:1000D0009D2F0008A92F0008B92F0008C52F000880
:1000E000D52F0008E12F0008ED2F0008F92F000898
:1000F00005300008113000081D30000829300008C4
:1001000035300008413000084D3000085D300008EF
:100110006930000875300008813000088D30000813
:1001200099300008A5300008B1300008BD30000843
:1001300080B501215FF0007000F032FE00215FF019
:10014000007000F02DFE01BD70B5040000250026F2
:1001500094F90000002808D094F90000012804D088
:100160007021DFF8F40600F06FFF94F90100002819
:1001700008D094F90100012804D07121DFF8D806D5
:1001800000F062FF94F90200002808D094F9020000
:10019000012804D07221DFF8C00600F055FF94F961
:1001A0000300002808D094F90300012804D073212B
:1001B000DFF8A40600F048FF94F90400002808D0F6
:1001C00094F90400012804D07421DFF88C0600F0B3
:1001D0003BFF94F90500002808D094F90500012898
:1001E00004D07521DFF8700600F02EFFA0790028FA
:1001F0000DD0A07901280AD0A079022807D0A079D3
:10020000032804D07621DFF8500600F01DFFE079C6
:1002100000280DD0E07901280AD0E079022807D023
:10022000E079032804D07721DFF82C0600F00CFFDA
:10023000207A102804DB7821DFF81C0600F004FF88
:10024000607A082804DB7921DFF80C0600F0FCFE58
:100250006089002803D06089B0F5806F04DD7A21C1
:10026000DFF8F40500F0F0FEDFF8F005006801218A
:100270000160DFF8E80500684068C00702D400208C
:100280000500C3E094F9000001280AD1DFF8CC058D
:100290000068006850F08000DFF8C0150968086049
:1002A00009E0DFF8B8050068006830F08000DFF88A
:1002B000AC150968086094F9010001280AD1DFF83B
:1002C0009C050068006850F04000DFF89015096850
:1002D000086009E0DFF884050068006830F040003D
:1002E000DFF878150968086094F9020001280AD13E
:1002F000DFF868050068006850F02000DFF85C1542
:100300000968086009E0DFF854050068006830F00B
:100310002000DFF848150968086094F903000128F7
:100320000AD1DFF838050068006850F01000DFF8E7
:100330002C150968086009E0DFF8200500680068EE
:1003400030F01000DFF814150968086094F9040013
:1003500001280AD1DFF804050068006850F00800A1
:10036000DFF8F8140968086009E0DFF8F0040068B5
:10037000006830F00800DFF8E4140968086094F9B8
:10038000050001280AD1DFF8D4040068006850F0A5
:100390000400DFF8C8140968086009E0DFF8BC044D
:1003A0000068006830F00400DFF8B01409680860E5
:1003B000A079E179090651EA8070217A50EA01407A
:1003C000617A50EA01506189491E0843DFF88C14B4
:1003D0000968C86101200500DFF880040068006832
:1003E00040084000DFF87414096808604FF480602A
:1003F0000600B6B2002E01D0761EFAE7DFF85C04E4
:1004000000684068C00701D5002005002800C0B280
:1004100070BD38B50400002520780E2804DBEA21E1
:10042000DFF8340400F010FE6078002807D0607810
:10043000012804D0EB21DFF8200400F005FEA078AD
:10044000002807D0A078012804D0EC21DFF80804A8
:1004500000F0FAFDA089002807D0A089012804D067
:10046000ED21DFF8F40300F0EFFD94F90E00002811
:1004700008D094F90E00012804D0EE21DFF8D8034B
:1004800000F0E2FD012094F9001088400500DFF83B
:10049000CC030068D0F8000250F00100DFF8BC1374
:1004A0000968C1F80002DFF8B4030068D0F81C0244
:1004B000ADB2A843DFF8A4130968C1F81C02A07804
:1004C000002823D1DFF894030068D0F80C02ADB205
:1004D000A843DFF888130968C1F80C022078DFF818
:1004E0007C13096811EBC0006189E28852EA01417E
:1004F000C0F840122078DFF86413096811EBC000DF
:100500002189A28852EA0141C0F84412A07801284A
:1005100023D1DFF848030068D0F80C02ADB22843BD
:10052000DFF838130968C1F80C022078DFF82C13C3
:10053000096811EBC000A188E28852EA0141C0F8C5
:1005400040122078DFF81413096811EBC0002189EC
:10055000628952EA0141C0F84412607800280CD147
:10056000DFF8F8020068D0F80402ADB2A843DFF863
:10057000EC120968C1F804020BE0DFF8E002006841
:10058000D0F80402ADB22843DFF8D0120968C1F8F0
:100590000402A08900280BD1DFF8C0020068D0F85F
:1005A0001402ADB2A843DFF8B4120968C1F814020E
:1005B000A08901280BD1DFF8A4020068D0F814024A
:1005C000ADB22843DFF894120968C1F8140294F917
:1005D0000E0001280BD1DFF884020068D0F81C025D
:1005E000ADB22843DFF874120968C1F81C02DFF8C5
:1005F0006C020068D0F8000240084000DFF85C128E
:100600000968C1F8000231BD00210170002141706C
:10061000002181700021C170002101710021417110
:10062000002181710021C1710321017202214172F7
:1006300001214181704738B504000D00012C26D0FE
:10064000022C24D0042C22D0082C20D0102C1ED018
:10065000202C1CD0402C1AD0B4F5807F17D0B4F5D4
:10066000007F14D0B4F5806F11D0B4F5006F0ED0B8
:10067000B4F5004F0BD0B4F5803F08D0B4F5003F7F
:1006800005D04FF4BF71DFF8D00100F0DDFC6DB292
:10069000002D08D06DB2012D05D040F27F11DFF89A
:1006A000B80100F0D1FC6DB2002D09D0DFF8AC012B
:1006B000006840692043DFF8A4110968486108E038
:1006C000DFF8980100684069A043DFF890110968DD
:1006D000486131BD10B50400E4B2002C08D0E4B28A
:1006E000012C05D040F23921DFF86C0100F0ACFCA0
:1006F000E4B2002C05D1DFF8640100682021C1605C
:1007000004E0DFF8580100682021016110BD38B510
:1007100004000D00E4B2002C07D0E4B2012C04D098
:1007200040F26F214C4800F08FFCE4B2DFF82C015E
:10073000006810EB0410D0F8B00110F0040028722B
:10074000287A00280AD1E4B2DFF81001006810EB23
:100750000410D0F8B001400D286009E0E4B2DFF8E1
:10076000FC00006810EB0410D0F8B001C00868600D
:10077000E4B2DFF8E800006810EB0410D0F8B00134
:1007800010F002006872E4B2DFF8D000006810EBED
:100790000410D0F8B40110F00F00A872E4B2DFF832
:1007A000BC00006810EB0410D0F8B401000AE87433
:1007B000E4B2DFF8A800006810EB0410D0F8B8012C
:1007C000E872E4B2DFF89400006810EB0410D0F88F
:1007D000B801000A2873E4B2DFF88000006810EB6B
:1007E0000410D0F8B801000C6873E4B2DFF86C00B4
:1007F000006810EB0410D0F8B801000EA873E4B242
:10080000DFF85800006810EB0410D0F8BC01E87362
:10081000E4B2DFF84800006810EB0410D0F8BC0127
:10082000000A2874E4B2DFF83400006810EB04100A
:10083000D0F8BC01000C6874E4B2DFF82000006856
:1008400010EB0410D0F8BC01000EA8742000C0B258
:10085000FFF740FF31BD0000D03700080005002041
:10086000DFF868060068006850F00100DFF85C16E9
:1008700009680860DFF8540600684068DFF8501621
:100880000840DFF8481609684860DFF8400600684D
:100890000068DFF840160840DFF830160968086085
:1008A000DFF828060068006830F48020DFF81C16A6
:1008B00009680860DFF814060068406830F4FE003C
:1008C000DFF8081609684860DFF8000600680021B4
:1008D0008160704710B50400002C0AD0B4F5803F49
:1008E00007D0B4F5802F04D0A321DFF8EC0500F089
:1008F000ABFBDFF8D8050068006830F48030DFF823
:10090000CC1509680860DFF8C4050068006830F499
:100910008020DFF8B815096808602000B0F5803F36
:1009200003D0B0F5802F0BD015E0DFF8A0050068EC
:10093000006850F48030DFF89415096808600AE018
:10094000DFF888050068006850F4A020DFF87C1507
:1009500009680860FFE710BD38B50020009000244A
:100960000025312000F060FA05000098401C00903E
:100970006DB2002D03D10098B0F5A06FF1D13120F8
:1009800000F052FA002802D00120040001E000200B
:100990000400200040B232BD70B504000D000026F6
:1009A000002C0BD0B4F5803F08D0B4F5403F05D003
:1009B00040F22511DFF8200500F046FB002D2FD076
:1009C000B5F5802F2CD0B5F5002F29D0B5F5402FE7
:1009D00026D0B5F5801F23D0B5F5A01F20D0B5F5E2
:1009E000C01F1DD0B5F5E01F1AD0B5F5001F17D0F8
:1009F000B5F5101F14D0B5F5201F11D0B5F5301F77
:100A00000ED0B5F5401F0BD0B5F5501F08D0B5F589
:100A1000601F05D04FF49371DFF8BC0400F014FBA5
:100A2000DFF8A80400684068060036F47C1655EA32
:100A300004000643DFF894040068466070BD10B5FA
:100A4000040064B2002C08D064B2012C05D04FF42D
:100A5000A071DFF8840400F0F7FADFF8800464B2D4
:100A6000046010BD38B504000025002C09D0012C0D
:100A700007D0022C05D040F25511DFF85C0400F0DD
:100A8000E3FADFF84804006840680500AD08AD00EF
:100A90002543DFF838040068456031BDDFF82C04D9
:100AA0000068406810F00C00704738B5040000255D
:100AB000002C15D0802C13D0902C11D0A02C0FD04E
:100AC000B02C0DD0C02C0BD0D02C09D0E02C07D0EE
:100AD000F02C05D04FF4C571DFF8FC0300F0B4FA38
:100AE000DFF8E80300684068050035F0F0052543AD
:100AF000DFF8D8030068456031BD38B50400002533
:100B0000002C11D0B4F5806F0ED0B4F5A06F0BD0CF
:100B1000B4F5C06F08D0B4F5E06F05D040F2AB116A
:100B2000DFF8B40300F090FADFF8A0030068406833
:100B3000050035F4E0652543DFF890030068456063
:100B400031BD38B504000025002C11D0B4F5806FFC
:100B50000ED0B4F5A06F0BD0B4F5C06F08D0B4F5CB
:100B6000E06F05D04FF4E671DFF86C0300F06CFA2B
:100B7000DFF8580300684068050035F4605555EA11
:100B8000C405DFF848030068456031BD30B400217A
:100B9000002200230024DFF834532D686D6815F01F
:100BA0000C0529000D00002D04D0042D06D0082DC1
:100BB00008D031E0DFF82853056030E0DFF8245337
:100BC00005602CE0DFF804532D686D6815F470158E
:100BD0002A00920C921CDFF8F4522D686D6815F40F
:100BE00080352B00002B05D1DFF8FC5205FB02F508
:100BF000056010E0DFF8D4522D686D68AD0305D5AF
:100C0000DFF8DC5205FB02F5056004E0DFF8D452A2
:100C100005FB02F5056002E0DFF8C4520560DFF86D
:100C2000AC522D686D6815F0F00529000909DFF850
:100C3000BC524D5D2C000568E5404560DFF88C52E4
:100C40002D686D6815F4E0652900090ADFF89C52EB
:100C50004D5D2C004568E5408560DFF870522D68D9
:100C60006D6815F460552900C90ADFF880524D5DA2
:100C70002C004568E540C560DFF850522D686D686E
:100C800015F440452900890BDFF864524D5D2C00B6
:100C9000C568B5FBF4F5056130BC704738B5040094
:100CA0000D00DFF85002044201D1002C04D140F2C3
:100CB0002531894800F0C8F96DB2002D07D06DB21A
:100CC000012D04D040F22631834800F0BDF96DB209
:100CD000002D07D07D480068806920437B49096862
:100CE000886106E0794800688069A043774909680F
:100CF000886131BD38B504000D007F48044201D140
:100D0000002C04D140F24731734800F09DF96DB2D8
:100D1000002D07D06DB2012D04D04FF452716E48F2
:100D200000F092F96DB2002D07D068480068C069E4
:100D3000204366490968C86106E064480068C069E4
:100D4000A04362490968C86131BD38B504000D008F
:100D50006848044201D1002C04D140F267315E485A
:100D600000F072F96DB2002D07D06DB2012D04D0E4
:100D70004FF45A71584800F067F96DB2002D07D052
:100D800052480068C068204350490968C86006E0BE
:100D90004E480068C068A0434C490968C86031BD2E
:100DA00038B504000D005448044201D1002C04D190
:100DB0004FF46271484800F047F96DB2002D07D03A
:100DC0006DB2012D04D040F28931434800F03CF966
:100DD0006DB2002D07D03D480068006920433B49B3
:100DE0000968086106E0394800680069A04337498E
:100DF0000968086131BD10B50400E4B2002C10D0C0
:100E0000E4B2052C0DD0E4B2042C0AD0E4B2062CD6
:100E100007D0E4B2072C04D040F2C5312E4800F0D0
:100E200013F93648047010BDF8B5040000250026FB
:100E30000027E4B2212C22D0E4B2312C1FD0E4B23E
:100E4000392C1CD0E4B2412C19D0E4B2612C16D05C
:100E5000E4B27A2C13D0E4B27B2C10D0E4B27C2C18
:100E60000DD0E4B27D2C0AD0E4B27E2C07D0E4B2DF
:100E70007F2C04D040F2E531174800F0E5F8E4B2E9
:100E80006009C0B20500012D04D110480068006857
:100E900006000AE0022D04D10C480068006A060032
:100EA00003E00A480068406A0600E4B214F01F003C
:100EB000050036FA05F0C00702D50120070001E061
:100EC00000200700380040B2F2BD00008C05002071
:100ED0000000FFF8FFFFF6FE1039000860004242F4
:100EE00000127A000024F40000093D00283A0008AE
:100EF000443A00080200FFFFC03701C50710024056
:100F000080B500F0ABF800F06FFA00F014F800F0D4
:100F100078F800F077FA00F081FADFF81C11086029
:100F20005FF4E13000F06CFB5FF4E13000F0E6FCD0
:100F300000F08BFAFEE780B5FFF792FC5FF480309B
:100F4000FFF7C8FCFFF708FD0128FBD15FF4E011B3
:100F50005FF44030FFF720FD0120FFF770FD3920DE
:100F6000FFF762FF0028FAD00020FFF79EFD002067
:100F7000FFF7E7FD4FF48060FFF7BFFD022000F0B0
:100F80003BFE002000F059FE102000F075FE02200C
:100F9000FFF768FDFFF782FD0828FBD1012104203F
:100FA000FFF77CFE01210820FFF778FE01211020C9
:100FB000FFF774FE01212020FFF770FE0121402081
:100FC000FFF76CFE01218020FFF768FE01214FF43E
:100FD0008070FFF763FE01210120FFF75FFE002014
:100FE000FFF709FF00F06CFE00215FF0006001F0E8
:100FF00001F84FF4E06000F08FFE1048002101601E
:1010000001BD80B542F2283001F020F8012001F046
:1010100055F8012001F029F801BD0A4800680028B0
:1010200004D008480068401E06490860044800686B
:10103000401C034908607047A0040020940400206D
:101040009C0400209804002081B001228DF800202B
:101050009DF90020002AFBD101B070476248634926
:101060000160634863490160634864490160644802
:1010700064490160644865490160654865490160EB
:101080006548664901606648664901606648674987
:1010900001606748674901606748684901606848BE
:1010A00068490160684869490160694869490160A7
:1010B00069486A4901606A486A4901606A486B493F
:1010C00001606B486B4901606B486C4901606C487A
:1010D0006C4901606C486D4901606D486D49016063
:1010E0006D486E4901606E486E4901606E486F49F7
:1010F00001606F485FF0204101606E486E490160F9
:101100006E486F4901606F486F4901606F487049D0
:101110000160704870490160704871490160714810
:1011200071490160714872490160724872490160F9
:101130007248734901607348734901607348744988
:1011400001607448744901607448754901607548CC
:1011500075490160754876490160764876490160B5
:101160007648774901607748774901607748784940
:101170000160784878490160784879490160794888
:101180007949016079487A4901607A487A49016071
:101190007A487B4901607B485FF0804101607A4872
:1011A0007A4901607A487B4901607B487B4901604C
:1011B0007B487C4901607C487C4901607C487D49D2
:1011C00001607D487D4901607D487E4901607E481F
:1011D0007E4901607E487F4901607F487F49016008
:1011E0007F48804901607047340500200024014099
:1011F00038050020002801404C050020003C01403B
:1012000004050020006C0040000500200064004040
:1012100090050020003002400C05002000740040C2
:10122000B0050020002004E054050020000002402A
:1012300058050020000402405C0500200800024020
:10124000600500201C0002406405002030000240C0
:1012500068050020440002406C0500205800024050
:10126000700500206C0002407405002080000240E0
:1012700078050020080402407C0500201C04024080
:101280008005002030040240840500204404024010
:101290008805002058040240140500200004014085
:1012A00094050020002002409805002000F8FF1F50
:1012B0009C050020A0050020040100A0A40500203A
:1012C000600000A0A8050020800000A0AC05002060
:1012D000A00000A018050020000801401C05002007
:1012E000000C0140200500200010014024050020D2
:1012F0000014014028050020001801402C050020A2
:10130000001C014030050020002001401005002095
:1013100000000140F804002000540040FC040020BC
:1013200000580040DC04002000300040B8050020D8
:1013300000E100E0BC05002000ED00E00805002011
:10134000007000408C05002000100240D4040020F2
:10135000002800405005002000800140400500208A
:1013600000300140E004002000380040E404002088
:10137000003C0040B405002010E000E03C050020E7
:10138000002C0140BC040020C004002000040040E8
:10139000C404002000080040C8040020000C0040E5
:1013A000CC04002000100040D004002000140040B5
:1013B0004405002000340140480500200038014069
:1013C000E804002000440040EC04002000480040F5
:1013D000F0040020004C0040F404002000500040C5
:1013E000D8040020002C004005480068002800D1E7
:1013F00072B603480068401C01490860704700BF8E
:101400009004002004480068401E0349086000283A
:1014100000D162B6704700BF9004002080B5032061
:101420008DF802000F20ADF8000004208DF80300B5
:1014300000A96D48006800F067FE6B48006880688E
:1014400010F00F0090F00F0002BD00B589B003202E
:101450008DF802004FF40060ADF8000048208DF8D0
:10146000030000A96148006800F04EFE4FF4805070
:10147000ADF8000018208DF8030000A95B48006853
:1014800000F042FEFEF754FE01215FF00070FFF70E
:1014900031FC02A8FFF7B8F800208DF80800002002
:1014A0008DF8090000208DF80A0000208DF80B004F
:1014B00000208DF80C0000208DF80D0001208DF823
:1014C0000E0000208DF80F0003208DF8100004207E
:1014D0008DF811000820ADF8120002A8FEF734FEC6
:1014E00000208DF8140000208DF8150001208DF8E3
:1014F00016000020ADF818000020ADF81A000020FA
:10150000ADF81C000020ADF81E000020ADF8200052
:1015100001208DF8220005A8FEF77BFF344800214A
:101520000160334800214160314800210172304898
:10153000002141722E480821817214208DF8040088
:1015400000208DF8050007208DF8060001208DF899
:10155000070001A800F0FEFB01210220FFF76BF855
:1015600009B000BD0021002202600022426000227A
:101570000272002282720022C27400221100C9B2DB
:10158000082905DAC9B20A180023D372491CF6E704
:10159000704780B51748FFF7E5FF16490020FFF7B1
:1015A000B6F8144800681449096888420ED11148F9
:1015B000007A00280AD10F48807A082806D10F48FF
:1015C000007810F0FE000D49087005E00B48007827
:1015D00050F00100094908700848007850F00200F6
:1015E0000649087001BD00002805002018050020EC
:1015F000380400204C040020A004002094040020A3
:1016000010B586B004000020DFF8D8120880DFF89B
:10161000D41248800020DFF8D0120880DFF8C8120A
:101620004880DFF8C8020021016010220021DFF8A5
:10163000C00200F063FE03208DF8020018208DF830
:1016400003004FF40070ADF8000000A9DFF8A40219
:10165000006800F059FD04208DF803004FF480600D
:10166000ADF8000000A9DFF88C02006800F04CFD26
:10167000DFF88402006800F05DFE01214FF4804035
:10168000FFF70CFB02A800F099FF02940020ADF8D0
:101690000C000020ADF80E000020ADF810000C206A
:1016A000ADF812000020ADF8140002A9DFF84802DE
:1016B000006800F0A7FE25208DF8040000208DF8BA
:1016C000050007208DF8060001208DF8070001A80D
:1016D00000F040FB01222821DFF81C02006800F026
:1016E000B2FF012240F22771DFF80C02006800F01F
:1016F000AAFF012240F22551DFF8FC01006800F04A
:10170000A2FF002240F22661DFF8EC01006800F041
:101710009AFF002240F22441DFF8DC01006800F06B
:1017200092FF002240F64601DFF8CC01006800F08D
:101730008AFF002240F66A11DFF8BC01006800F061
:1017400082FF00226021DFF8B001006800F07BFF1B
:101750000121DFF8A401006800F03EFF06B010BDD3
:1017600080B50821DFF89001006801F053F80028E7
:1017700009D06148006801F026F85C48006850F024
:1017800002005A49086004215B48006801F042F8F1
:10179000002806D102215848006801F03BF80028D3
:1017A00009D05548006801F00EF85048006850F024
:1017B00008004E49086001214F48006801F02AF8EE
:1017C000002809D04C48006800F0FDFF4748006839
:1017D00050F004004549086020214748006801F0A6
:1017E00019F800280ED04448006800F0ECFFC0B2A1
:1017F00000F04CF8002805D13C48006850F0020089
:101800003A49086080213C48006801F003F800284C
:101810001BD040F227713848006801F055F80028C5
:1018200013D000A800F012F8002807D09DF800108F
:1018300089B23148006800F0A1FF06E0002240F2C2
:1018400027712D48006800F0FEFE01BD010026480A
:101850000088254A5288904201D1002015E0224894
:101860004088214A8018007908701F484088401C31
:101870001D4A50801C4840884FF4807290FBF2F360
:1018800003FB1203184843800120704710B4010085
:1018900014480088421C92B24FF48073100090FBF1
:1018A000F3F202FB13020F48408892B2824201D148
:1018B000002014E00B4800880A4BC0180171094849
:1018C0000088401C074B1880064800884FF480733E
:1018D00090FBF3F404FB130402480480012010BCC5
:1018E000704700000000002004010020B404002024
:1018F00070040020180500204805002010B586B0AF
:1019000004000020DFF8D8120880DFF8D4124880E5
:101910000020DFF8D0120880DFF8C8124880DFF816
:10192000C8020021016010220021DFF8C00200F08F
:10193000E5FC03208DF8020018208DF803004FF419
:101940008060ADF8000000A9DFF8A402006800F094
:10195000DBFB04208DF803004FF40060ADF80000BD
:1019600000A9DFF88C02006800F0CEFBDFF88402EB
:10197000006800F0DFFC01215FF48020FFF7BAF976
:1019800002A800F01BFE02940020ADF80C0000201D
:10199000ADF80E000020ADF810000C20ADF81200DC
:1019A0000020ADF8140002A9DFF84802006800F03A
:1019B00029FD27208DF8040000208DF80500072060
:1019C0008DF8060001208DF8070001A800F0C2F98B
:1019D00001222821DFF81C02006800F034FE0122F9
:1019E00040F22771DFF80C02006800F02CFE0122A3
:1019F00040F22551DFF8FC01006800F024FE0022CF
:101A000040F22661DFF8EC01006800F01CFE0022C5
:101A100040F22441DFF8DC01006800F014FE0022EF
:101A200040F64601DFF8CC01006800F00CFE002211
:101A300040F66A11DFF8BC01006800F004FE0022E5
:101A40006021DFF8B001006800F0FDFD0121DFF842
:101A5000A401006800F0C0FD06B010BD80B50821EB
:101A6000DFF89001006800F0D5FE002809D0614839
:101A7000006800F0A8FE5C48006850F002005A4977
:101A8000086004215B48006800F0C4FE002806D10D
:101A900002215848006800F0BDFE002809D05548D2
:101AA000006800F090FE5048006850F008004E4971
:101AB000086001214F48006800F0ACFE002809D002
:101AC0004C48006800F07FFE4748006850F0040072
:101AD0004549086020214748006800F09BFE002827
:101AE0000ED04448006800F06EFEC0B200F04CF822
:101AF000002805D13C48006850F002003A490860CF
:101B000080213C48006800F085FE00281BD040F290
:101B100027713848006800F0D7FE002813D000A8CD
:101B200000F012F8002807D09DF8001089B2314863
:101B3000006800F023FE06E0002240F227712D48E5
:101B4000006800F080FD01BD010026480088254A9C
:101B50005288904201D1002015E022484088214A55
:101B60008018007908701F484088401C1D4A50802A
:101B70001C4840884FF4807290FBF2F303FB120381
:101B8000184843800120704710B4010014480088B1
:101B9000421C92B24FF48073100090FBF3F202FBF0
:101BA00013020F48408892B2824201D1002014E013
:101BB0000B4800880A4BC018017109480088401C76
:101BC000074B1880064800884FF4807390FBF3F4AD
:101BD00004FB130402480480012010BC704700007D
:101BE000080200200C030020B8040020800400201C
:101BF0001C050020EC04002010B50400002C08D0C7
:101C0000012C06D0022C04D05921DFF8AC00FFF7DC
:101C10001BFADFF8A8000068006810F03800DFF851
:101C20009C1009680860DFF8940000680068204391
:101C3000DFF888100968086010BD10B50400082C92
:101C400006D0002C04D06D21DFF86C00FFF7FCF902
:101C5000DFF868000068006830F00800DFF85C100A
:101C600009680860DFF85400006800682043DFF866
:101C70004C100968086010BD10B50400102C06D087
:101C8000002C04D08121DFF83000FFF7DDF9DFF808
:101C90002C000068006830F01000DFF820100968A0
:101CA0000860DFF81800006800682043DFF80C10B7
:101CB0000968086010BD0000843600089405002003
:101CC0000020DFF8701309685FF0FF32C1F8802050
:101CD000DFF8601309687FF07042C1F88420DFF8F4
:101CE000541309685FF0FF32C1F88021DFF8441314
:101CF00009687FF07042C1F88421002108000F2894
:101D000009D2DFF83013096811EB80010022C1F815
:101D10000023401CF3E7704710B50400B4F5E06FF2
:101D200010D0B4F5C06F0DD0B4F5A06F0AD0B4F5E3
:101D3000806F07D0B4F5407F04D06421DFF8000342
:101D4000FFF782F9DFF8F0020068DFF8F0122143B4
:101D5000C16010BD2DE9F8430400002500260027CE
:101D60005FF000085FF00F0994F90300002808D025
:101D700094F90300012804D07A21DFF8C402FFF7A8
:101D800063F92078002800F0C8802078012800F04E
:101D9000C4802078022800F0C0802078032800F05A
:101DA000BC802078042800F0B8802078052800F056
:101DB000B4802078062800F0B0802078072800F052
:101DC000AC802078082800F0A8802078092800F04E
:101DD000A48020780A2800F0A08020780B2800F04A
:101DE0009C8020780C2800F0988020780D2800F046
:101DF000948020780E2800F0908020780F2800F042
:101E00008C802078102800F088802078112800F03D
:101E100084802078122800F08080207813287CD0DD
:101E20002078142879D02078152876D020781628A4
:101E300073D02078172870D0207818286DD020789B
:101E400019286AD020781A2867D020781B2864D0F7
:101E500020781C2861D020781D285ED020781E288C
:101E60005BD020781F2858D02078202855D02078A3
:101E7000212852D0207822284FD0207823284CD0F7
:101E80002078242849D02078252846D02078262874
:101E900043D02078272840D0207828283DD02078AB
:101EA00029283AD020782A2837D020782B2834D0F7
:101EB00020782C2831D020782D282ED020782E285C
:101EC0002BD020782F2828D02078302825D02078B3
:101ED000312822D0207832281FD0207833281CD0F7
:101EE0002078342819D02078352816D02078362844
:101EF00013D02078372810D0207838280DD02078BB
:101F000039280AD020783A2807D020783B2804D0F6
:101F10007B21DFF82C01FFF797F86078102804DBAD
:101F20007C21DFF81C01FFF78FF8A078102804DB74
:101F30007D21DFF80C01FFF787F894F903000028F2
:101F400048D0DFF8F4000068C06810F4E060D0F515
:101F5000E060000A0500D5F10400804639FA05F971
:101F6000607810FA08F00500A07819EA000005432F
:101F70002D01207810F00300C0B2C0008540207809
:101F80008010DFF8B010096811EB8000D0F8000372
:101F90000600FF20217811F00301C9B2C900884072
:101FA0000700BE433D402E4320788010DFF88410A8
:101FB000096811EB8000C0F8006320784011DFF859
:101FC000741009680122237813F01F039A4041F826
:101FD00020200DE020784011DFF85810096811EB3F
:101FE00080000121227812F01F029140C0F8801079
:101FF000BDE8F18338B504000D00B4F1005F07D0EF
:10200000B4F1006F04D04FF4C6710D48FFF71CF80F
:10201000DFF83000854204D340F28D110848FFF705
:1020200013F8DFF82400284020430349096888603A
:1020300031BD0000B8050020BC0500200000FA05F5
:10204000C0380008FFFF070080FFFF1F10B5040025
:10205000002C02D0B4F1807F03D345212848FEF73D
:10206000F3FF28480068446010BD10B5040014F167
:10207000020F07D0012C05D0002C03D05821204896
:10208000FEF7E2FF012C08D11E480068006850F0FE
:1020900001001C49096808600FE014F1020F08D123
:1020A0001848006800684008400016490968086040
:1020B00003E0144800680021816010BD10B50400E1
:1020C00064B2002C06D064B2012C03D073210C48FA
:1020D000FEF7BAFF64B2002C08D00A480068006816
:1020E00050F0020007490968086007E005480068E9
:1020F000006830F0020003490968086010BD000064
:10210000D8360008B40500202DE9F84F04000D0072
:10211000002600275FF000085FF000095FF0000A6A
:102120005FF0000BDFF8B40184421CD0DFF8B0018F
:10213000844218D0DFF8AC01844214D0DFF8A80143
:10214000844210D0DFF8A40184420CD0DFF8A00153
:10215000844208D0DFF89C01844204D08221DFF859
:102160009801FEF771FF95F90300002820D095F93A
:10217000030004281CD095F90300282818D095F9ED
:102180000300482814D095F90300142810D095F9BD
:10219000030010280CD095F903001C2808D095F9ED
:1021A0000300182804D08321DFF84C01FEF74CFF10
:1021B0002888002804D18421DFF83C01FEF744FF81
:1021C000E87810F00F000600E878C00613D595F9FE
:1021D000020001280CD095F90200022808D095F9D8
:1021E0000200032804D08C21DFF80C01FEF72CFF3D
:1021F00095F9020006432878000633D0206882460D
:1022000000208046B8F1080F2AD2012010FA08F009
:102210008146288819EA000007004F451DD15FEA72
:10222000880081460F2010FA09F083463AEA0B0A2B
:1022300016FA09F050EA0A0A95F90300282804D191
:10224000012010FA08F0606107E095F903004828C2
:1022500003D1012010FA08F0206118F10108D1E73C
:10226000C4F800A02888FF2835DD60688246002079
:102270008046B8F1080F2CD2012018F108018840DF
:102280008146288819EA000007004F451ED15FEA01
:10229000880081460F2010FA09F083463AEA0B0ABB
:1022A00016FA09F050EA0A0A95F90300282804D121
:1022B000012018F108018840606195F90300482861
:1022C00004D1012018F108018840206118F10108AB
:1022D000CFE7C4F804A0BDE8F18F0000000801407A
:1022E000000C0140001001400014014000180140A2
:1022F000001C0140002001407038000870B5040047
:102300000D0016002A003100200000F079FB2000AB
:1023100070BD50F8041B61B150F8042BD30744BFC3
:10232000A9F101039A18002342F8043B091FFAD1CE
:10233000EFE7704710B50400DFF88805844214D039
:10234000DFF8B804844210D0DFF8B40484420CD023
:10235000DFF8B004844208D0DFF8AC04844204D033
:102360005D21DFF8A804FEF76FFE2000DFF88C1473
:1023700088421AD0DFF88814884221D0DFF884140C
:10238000884228D0DFF8801488422FD0DFF8341537
:10239000884236D101214FF48040FEF7D6FC00215F
:1023A0004FF48040FEF7D1FC2BE001215FF40030B8
:1023B000FEF7F6FC00215FF40030FEF7F1FC20E0B0
:1023C00001215FF48020FEF7EBFC00215FF4802008
:1023D000FEF7E6FC15E001215FF40020FEF7E0FCCB
:1023E00000215FF40020FEF7DBFC0AE001215FF42E
:1023F0008010FEF7D5FC00215FF48010FEF7D0FCC2
:10240000FFE710BD2DE9F04786B004000D0000265F
:1024100000275FF000085FF000095FF0000ADFF8B6
:10242000A404844214D0DFF8D403844210D0DFF82F
:10243000D00384420CD0DFF8CC03844208D0DFF80C
:10244000C803844204D09521DFF8C003FEF7FCFDE9
:102450002868002804D02868DFF8B413884204D321
:102460009621DFF8A803FEF7EFFDA888002808D022
:10247000A888B0F5805F04D09721DFF89003FEF7BD
:10248000E3FDE888002810D0E888B0F5805F0CD024
:10249000E888B0F5005F08D0E888B0F5405F04D068
:1024A0009821DFF86803FEF7CFFD288900280CD0BB
:1024B0002889B0F5806F08D02889B0F5C06F04D0A6
:1024C0009921DFF84803FEF7BFFD68894FF6F371E5
:1024D000084202D16889002804D19A21DFF82C0330
:1024E000FEF7B2FDA889002810D0A889B0F5807F3A
:1024F0000CD0A889B0F5007F08D0A889B0F5407F3E
:1025000004D09B21DFF80403FEF79EFDDFF8F40200
:10251000844203D0DFF8F002844207D1A889002862
:1025200004D09D21DFF8E402FEF78EFDA246208A4A
:1025300006004CF6FF700640E88806432682A08914
:1025400006004EF6F3100640A888298908436989D9
:1025500008430643A681A08A06004FF6FF400640C6
:10256000A8890643A68200A8FEF710FBDFF85403F3
:10257000824502D10398070001E002980700192064
:1025800000FB07F029688900B0FBF1F08046642069
:10259000B8FBF0F0000106003009642101FB108057
:1025A00081465FEA091032306421B0FBF1F010F08F
:1025B0000F000643268106B0BDE8F0874FF41651A0
:1025C0000160002181800021C180002101810C2156
:1025D000418100218181704738B504000D00DFF88A
:1025E000E402844215D0DFF81402844211D0DFF8EF
:1025F000100284420DD0DFF80C02844209D0DFF8CB
:102600000802844205D04FF49D71DFF80002FEF706
:102610001BFD6DB2002D08D06DB2012D05D040F22A
:102620003B11DFF8E801FEF70FFD6DB2002D04D07D
:10263000A08950F40050A08104E0A0894DF6FF71FC
:102640000840A08131BD2DE9F04704000D001600BF
:1026500000275FF000085FF000095FF0000ADFF874
:102660006402844215D0DFF89401844211D0DFF86F
:10267000900184420DD0DFF88C01844209D0DFF84C
:102680008801844205D04FF4B471DFF88001FEF771
:10269000DBFCADB2282D26D0ADB240F227708542CA
:1026A00021D0ADB240F2266085421CD0ADB240F2DE
:1026B0002550854217D0ADB240F22440854212D059
:1026C000ADB240F6460085420DD0ADB240F66A107C
:1026D000854208D0ADB2602D05D040F26911DFF817
:1026E0002C01FEF7B1FCDFF81C01844203D0DFF8B7
:1026F000180184420AD1ADB240F66A10854205D174
:102700004FF4B571DFF80401FEF79EFC76B2002E9F
:1027100008D076B2012E05D040F26B11DFF8EC0044
:10272000FEF792FCA2462800C0B24009C0B20700E2
:10273000ADB215F01F008046012010FA08F0814666
:10274000012F02D11AF10C0A06E0022F02D11AF170
:10275000100A01E01AF1140A76B2002E06D0DAF857
:10276000000059EA0000CAF8000005E0DAF80000AD
:1027700030EA0900CAF80000BDE8F08738B5040067
:102780000D00DFF84001844210D01C4884420DD077
:102790001B4884420AD01B48844207D01A4884420E
:1027A00004D040F23E211948FEF74EFCADB2B5F51B
:1027B000007F04DB40F23F211448FEF745FCE805AA
:1027C000C00DA08031BD10B50400DFF8F8008442D0
:1027D00010D00A4884420DD0094884420AD00948E2
:1027E000844207D00848844204D040F2512107486F
:1027F000FEF72AFCA088C005C00D10BD00440040B3
:1028000000480040004C0040005000402C370008B9
:1028100021AA440070B504000D0000262948844216
:1028200010D0714884420DD0704884420AD070485C
:10283000844207D06F48844204D040F23A316E4857
:10284000FEF702FCADB2012D21D0ADB2802D1ED01D
:10285000ADB2402D1BD0ADB2202D18D0ADB2102D91
:1028600015D0ADB2B5F5807F11D0ADB2B5F5007F12
:102870000DD0ADB2082D0AD0ADB2042D07D0ADB247
:10288000022D04D040F23B315B48FEF7DDFB584897
:10289000844202D05748844208D1ADB2B5F5007FDA
:1028A00004D14FF44F715448FEF7CEFB20882842E4
:1028B00002D00120060001E000200600300040B2F6
:1028C00070BD0000003801402DE9F84304000D0000
:1028D000002600275FF000085FF0000947488442A7
:1028E00010D0414884420DD0404884420AD040482C
:1028F000844207D03F48844204D04FF464713E487C
:10290000FEF7A2FBADB2282D2ED0ADB240F227705B
:10291000854229D0ADB240F22660854224D0ADB2C6
:1029200040F2255085421FD0ADB240F2244085428E
:102930001AD0ADB240F64600854215D0ADB240F691
:102940006A10854210D0ADB2B5F5587F0CD0ADB24B
:10295000B5F5187F08D0ADB2B5F5B07F04D040F220
:1029600091312548FEF770FB2148844202D021486E
:10297000844209D1ADB240F66A10854204D140F2DA
:1029800092311D48FEF760FB2800C0B24009C0B27A
:102990008046ADB215F01F000700012010FA07F7BE
:1029A000B8F1010F02D1A089074007E0B8F1020F8A
:1029B00002D1208A074001E0A08A0740ADB2280A70
:1029C00080B20600012010FA06F620880640002F8B
:1029D00004D0002E02D00120814601E00020814673
:1029E000484640B2BDE8F283004400400048004041
:1029F000004C0040005000402C37000800380140D7
:102A000062F30F2262F31F42401810F0030308D054
:102A1000C91A1FD3DB0748BF00F8012D28BF20F8D3
:102A2000022D130030B414461546103928BF20E992
:102A30003C00FAD8490728BF20E90C0048BF40F8FD
:102A4000042D890028BF20F8022D48BF00F8012D71
:102A500030BC7047C91818BF00F8012DCB0728BF3C
:102A600000F8012D7047000038B504000D001B4828
:102A7000844219D0B4F1804F16D01948844213D043
:102A80001848844210D0184884420DD01748844218
:102A90000AD01748844207D05A48844204D040F2F2
:102AA0003F311448FEF7D0FA6DB2002D07D06DB259
:102AB000012D04D04FF450710E48FEF7C5FA6DB2E7
:102AC000002D04D0208850F00100208004E02088F0
:102AD00040F2FE310840208031BD0000002C014052
:102AE0000004004000080040000C004000100040BE
:102AF000001400406039000870B504000D00160095
:102B0000DFF8040184421FD0B4F1804F1CD0DFF8FD
:102B1000FC00844218D0DFF8F800844214D0DFF8BB
:102B2000F400844210D0DFF8F00084420CD0DFF8CB
:102B3000EC00844208D03348844205D04FF46071E1
:102B4000DFF8DC00FEF780FA4FF47F40054202D147
:102B5000ADB2002D05D140F28131DFF8C400FEF79F
:102B600073FAB4F1804F0BD0DFF8A000844207D095
:102B7000DFF89C00844203D0DFF89800844206D13D
:102B80004FF6A070054202D1ADB2002D22D1DFF880
:102B90007800844202D01B48844206D14FF47F4023
:102BA000054202D1ADB2002D14D1DFF86C00844291
:102BB00003D0DFF86800844206D14FF6FE7005426C
:102BC00002D1ADB2002D05D140F28231DFF85000C4
:102BD000FEF73AFA76B2002E08D076B2012E05D072
:102BE00040F28331DFF83800FEF72EFA76B2002E7D
:102BF00003D0A0892843A08102E0A089A843A08136
:102C000070BD000000340140002C01400004004071
:102C100000080040000C004000100040001400407C
:102C20006039000838B504000D00114884421CD0FA
:102C3000B4F1804F19D00F48844216D00E48844218
:102C400013D00E48844210D0DFF8380084420CD0F4
:102C5000DFF83400844208D00948844205D040F6A9
:102C6000FC11DFF86C00FEF7EFF9A58431BD000020
:102C7000002C01400004004000080040000C00400F
:102C800000340140001000400014004010B5040062
:102C9000DFF84000844218D0B4F1804F15D0DFF83F
:102CA0003800844211D0DFF8E00084420DD0DFF814
:102CB000DC00844209D0DFF8D800844205D04FF40C
:102CC0003061DFF80C00FEF7BFF9208F10BD000067
:102CD00060390008002C01400004004038B50400B1
:102CE0000D002E48844219D0B4F1804F16D02D48E3
:102CF000844213D02448844210D0244884420DD00A
:102D0000244884420AD02448844207D02048844280
:102D100004D04FF43D612248FEF796F9B4F1804F9C
:102D200008D02048844205D01748844202D0174872
:102D3000844206D14FF6A070054202D1ADB2002DFB
:102D40001ED11648844202D01148844206D14FF465
:102D50007F40054202D1ADB2002D11D10D48844211
:102D600002D00D48844206D14FF6FE70054202D1D2
:102D7000ADB2002D04D140F6D1310948FEF764F917
:102D8000ADB2E843208231BD00080040000C004095
:102D9000003401400010004000140040002C0140AD
:102DA0006039000800040040FEE7FEE7FEE7FEE7AA
:102DB000FEE780B5FEF718FBFEF724FB01BD80B5EA
:102DC000FEF712FBFEF71EFB01BD80B5FEF70CFB04
:102DD000FEF718FB01BD80B5FEF706FBFEF71DF9F7
:102DE000FEF710FB01BD80B5FEF7FEFAFEF70AFB09
:102DF00001BD80B5FEF7F8FAFEF704FB01BD704790
:102E000080B5FEF7F1FAFEF7FDFA01BD80B5FEF7D9
:102E1000EBFAFEF7F7FA01BD80B5FEF7E5FAFEF72B
:102E2000F1FA01BD80B5FEF7DFFAFEF7EBFA01BD5E
:102E300080B5FEF7D9FAFEF7E5FA01BD80B5FEF7D9
:102E4000D3FAFEF7DFFA01BD80B5FEF7CDFAFEF743
:102E5000D9FA01BD80B5FEF7C7FAFEF7D3FA01BD76
:102E600080B5FEF7C1FA00F086F9FEF7CBFA01BD96
:102E700080B5FEF7B9FAFEF7C5FA01BD80B5FEF7D9
:102E8000B3FAFEF7BFFA01BD80B5FEF7ADFAFEF763
:102E9000B9FA01BD80B5FEF7A7FAFEF7B3FA01BD96
:102EA00080B5FEF7A1FAFEF7ADFA01BD80B5FEF7D9
:102EB0009BFAFEF7A7FA01BD80B5FEF795FAFEF77B
:102EC000A1FA01BD80B5FEF78FFAFEF79BFA01BDAE
:102ED00080B5FEF789FAFEF75CFBFEF793FA01BDB9
:102EE00080B5FEF781FAFEF78DFA01BD80B5FEF7D9
:102EF0007BFAFEF787FA01BD80B5FEF775FAFEF79B
:102F000081FA01BD80B5FEF76FFAFEF77BFA01BDCD
:102F100080B5FEF769FAFEF775FA01BD80B5FEF7D8
:102F200063FAFEF76FFA01BD80B5FEF75DFAFEF7B2
:102F300069FA01BD80B5FEF757FAFEF763FA01BDE5
:102F400080B5FEF751FA00F075F9FEF75BFA01BDA6
:102F500080B5FEF749FA00F0AAF9FEF753FA01BD71
:102F600080B5FEF741FAFEF74DFA01BD80B5FEF7D8
:102F70003BFAFEF747FA01BD80B5FEF735FAFEF7DA
:102F800041FA01BD80B5FEF72FFAFEF73BFA01BD0D
:102F900080B5FEF729FAFEF735FA01BD80B5FEF7D8
:102FA00023FAFEF72FFA01BD80B5FEF71DFAFEF7F2
:102FB000D7FBFEF727FA01BD80B5FEF715FAFEF73D
:102FC00021FA01BD80B5FEF70FFAFEF747FDFEF7C7
:102FD00019FA01BD80B5FEF707FAFEF713FA01BD35
:102FE00080B5FEF701FAFEF70DFA01BD80B5FEF7D8
:102FF000FBF9FEF707FA01BD80B5FEF7F5F9FEF71C
:1030000001FA01BD80B5FEF7EFF9FEF7FBF901BD4E
:1030100080B5FEF7E9F9FEF7F5F901BD80B5FEF7D9
:10302000E3F9FEF7EFF901BD80B5FEF7DDF9FEF734
:10303000E9F901BD80B5FEF7D7F9FEF7E3F901BD67
:1030400080B5FEF7D1F9FEF7DDF901BD80B5FEF7D9
:10305000CBF900F07FF8FEF7D5F901BD80B5FEF79A
:10306000C3F9FEF7CFF901BD80B5FEF7BDF9FEF754
:10307000C9F901BD80B5FEF7B7F9FEF7C3F901BD87
:1030800080B5FEF7B1F9FEF7BDF901BD80B5FEF7D9
:10309000ABF9FEF7B7F901BD80B5FEF7A5F9FEF76C
:1030A000B1F901BD80B5FEF79FF9FEF7ABF901BD9F
:1030B00080B5FEF799F9FEF7A5F901BD80B5FEF7D9
:1030C00093F9FEF79FF901BD10B50400E4B2042C9A
:1030D0002DDA55480068002141602822002153481C
:1030E000FFF70CF9072301222100C9B24A48006802
:1030F00000F062F907230122211DC9B24748006888
:1031000000F05AF9002147480068FFF78BFD0121C4
:1031100044480068FFF7E2FD0122012141480068B0
:10312000FFF7EAFC01213F480068FFF79DFC10BD56
:1031300080B500213B480068FFF796FC0022012182
:1031400038480068FFF7D8FC012136480068FFF7CF
:10315000C5FD01BD80B5002132480068FFF762FD62
:1031600001212D48006800F0F9F801212D48006880
:10317000FFF7B4FD01BD38B500240025FFF7D8FFE7
:10318000002080B20A280CDA80B2284931F82010D9
:103190000C1980B2254911EB800149884D19401C5A
:1031A000EFE70A20B4FBF0F441F28830444340F6E4
:1031B000FF70B4FBF0F40A20B5FBF0F541F2883063
:1031C000454340F6FF70B5FBF0F51548007804283C
:1031D00016DA13480078164921F810401048007894
:1031E000134911EB400005810D480078401C0C4943
:1031F0000870C0B2042806DB09480021017002E013
:1032000007480021017006480078FFF75DFF0320A2
:1032100000F0D8F931BD0000340500203805002049
:10322000CC050020C80400205C050020100400200C
:103230006004002080B53D480088002809D13A4844
:103240000068FFF723FD3A490880384801210180D2
:1032500027E035480068FFF719FD364908803448F3
:10326000008834490988884207D2324800883049AA
:103270000988401A3049086009E04FF6FF702C4970
:103280000988401A2B49098808182B4908602B48DF
:1032900029490968B0FBF1F0294908602348002159
:1032A0000180042120480068FFF718FD01BD80B5AA
:1032B00025480088002809D122480068FFF7E6FC6D
:1032C0002249088020480121018027E01D4800682C
:1032D000FFF7DCFC1E4908801C4800881C4909884F
:1032E000884207D21A48008818490988401A1949A3
:1032F000086009E04FF6FF7014490988401A144924
:1033000009880818134908600C4812490968B0FB7D
:10331000F1F0114908600C4800210180042109489E
:103320000068FFF7DBFC01BDC0040020C0050020E1
:10333000C2050020C4050020A404002000A24A0405
:10334000A8040020C4040020C6050020C8050020F1
:10335000CA050020AC040020B004002038B50400E9
:103360000D00DFF8500284420DD0DFF84C02844299
:1033700009D0DFF84802844205D040F2C711DFF8D7
:103380004002FDF761FE6DB2002D08D06DB2012D37
:1033900005D04FF4E471DFF82802FDF755FE6DB259
:1033A000002D04D0A06850F4A000A06003E0A06845
:1033B00030F4A000A06031BD2DE9F84304000D00F9
:1033C00016001F005FF000085FF00009DFF8E4015D
:1033D00084420DD0DFF8E001844209D0DFF8DC013F
:1033E000844205D040F25F21DFF8D401FDF72CFEC6
:1033F000EDB2002D38D0EDB2012D35D0EDB2022D59
:1034000032D0EDB2032D2FD0EDB2042D2CD0EDB281
:10341000052D29D0EDB2062D26D0EDB2072D23D0F3
:10342000EDB2082D20D0EDB2092D1DD0EDB20A2D40
:103430001AD0EDB20B2D17D0EDB20C2D14D0EDB289
:103440000D2D11D0EDB20E2D0ED0EDB20F2D0BD0F3
:10345000EDB2102D08D0EDB2112D05D04FF418713A
:10346000DFF85C01FDF7F0FDF6B2002E02D0F6B2F7
:10347000112E05DB40F26121DFF84401FDF7E4FD88
:10348000FFB2002F1AD0FFB2012F17D0FFB2022FC8
:1034900014D0FFB2032F11D0FFB2042F0ED0FFB211
:1034A000052F0BD0FFB2062F08D0FFB2072F05D093
:1034B00040F26221DFF80801FDF7C6FDEDB20A2DEA
:1034C00017DBE06880460720B5F10A01032251436B
:1034D0008840814638EA0908FFB2B5F10A000321A5
:1034E000484317FA00F0814659EA0808C4F80C80EE
:1034F00014E0206980460720032101FB05F1884084
:10350000814638EA0908FFB2032000FB05F017FAEC
:1035100000F0814659EA0808C4F81080F6B2072E78
:1035200015DA606B80461F20711E052251438840CA
:10353000814638EA0908EDB2701E0521484315FAA4
:1035400000F0814659EA0808C4F834802FE0F6B24A
:103550000D2E15DA206B80461F20F11F05225143E6
:103560008840814638EA0908EDB2F01F052148433A
:1035700015FA00F0814659EA0808C4F8308016E0D0
:10358000E06A80461F20B6F10D01052251438840B4
:10359000814638EA0908EDB2B6F10D00052148432D
:1035A00015FA00F0814659EA0808C4F82C80BDE8F5
:1035B000F18300000024014000280140003C01404C
:1035C0008037000810B5040014F0704F02D00D4889
:1035D000044201D1002C04D140F296210648FDF7A7
:1035E00033FDE00003D506480068446002E003486C
:1035F0000068446010BD0000203800085405002019
:10360000580500200000F0EF30BF704720BF704722
:1036100040BF7047BFF36F8F7047BFF34F8F704746
:10362000BFF35F8F704701DF7047EFF3148070477F
:1036300080F31488BFF36F8F7047EFF309807047F2
:1036400080F309887047EFF30880704780F308889B
:10365000704762B6704772B67047EFF310807047DC
:1036600061B6704771B67047EFF31380704780F30F
:1036700011887047EFF31280704740BA704700BA64
:1036800070470000433A5C50726F6A656374323071
:1036900031355C434543535F50726F6A5C4557490F
:1036A00041525F536F757263655C434543535F528C
:1036B000656C61794D6F64756C655C6C6962726193
:1036C00072795C73746D3332663130785F666C6129
:1036D00073682E6300000000433A5C50726F6A65A5
:1036E0006374323031355C434543535F50726F6AC7
:1036F0005C45574941525F536F757263655C434542
:1037000043535F52656C61794D6F64756C655C6C99
:103710006962726172795C73746D333266313078CC
:103720005F7379737469636B2E630000433A5C5076
:10373000726F6A656374323031355C434543535F61
:1037400050726F6A5C45574941525F536F7572639F
:10375000655C434543535F52656C61794D6F647599
:103760006C655C6C6962726172795C73746D333222
:10377000663130785F75736172742E6300000000EB
:10378000433A5C50726F6A656374323031355C4322
:103790004543535F50726F6A5C45574941525F53CE
:1037A0006F757263655C434543535F52656C617925
:1037B0004D6F64756C655C6C6962726172795C7383
:1037C000746D3332663130785F6164632E6300005C
:1037D000433A5C50726F6A656374323031355C43D2
:1037E0004543535F50726F6A5C45574941525F537E
:1037F0006F757263655C434543535F52656C6179D5
:103800004D6F64756C655C6C6962726172795C7332
:10381000746D3332663130785F63616E2E63000001
:10382000433A5C50726F6A656374323031355C4381
:103830004543535F50726F6A5C45574941525F532D
:103840006F757263655C434543535F52656C617984
:103850004D6F64756C655C6C6962726172795C73E2
:10386000746D3332663130785F646D612E630000B1
:10387000433A5C50726F6A656374323031355C4331
:103880004543535F50726F6A5C45574941525F53DD
:103890006F757263655C434543535F52656C617934
:1038A0004D6F64756C655C6C6962726172795C7392
:1038B000746D3332663130785F6770696F2E6300E4
:1038C000433A5C50726F6A656374323031355C43E1
:1038D0004543535F50726F6A5C45574941525F538D
:1038E0006F757263655C434543535F52656C6179E4
:1038F0004D6F64756C655C6C6962726172795C7342
:10390000746D3332663130785F6E7669632E630092
:10391000433A5C50726F6A656374323031355C4390
:103920004543535F50726F6A5C45574941525F533C
:103930006F757263655C434543535F52656C617993
:103940004D6F64756C655C6C6962726172795C73F1
:10395000746D3332663130785F7263632E630000BA
:10396000433A5C50726F6A656374323031355C4340
:103970004543535F50726F6A5C45574941525F53EC
:103980006F757263655C434543535F52656C617943
:103990004D6F64756C655C6C6962726172795C73A1
:1039A000746D3332663130785F74696D2E63000058
:1039B00010B5074979441831064C7C44163404E0AC
:1039C0000A68081D511888470146A142F8D110BD68
:1039D00008000000140000003BE9FFFFD0050000D4
:1039E000000000200000000000F009F8002801D0CD
:1039F000FFF7DEFF0020FDF783FA00F002F8012058
:103A0000704700F001B800000746384600F002F8A1
:103A1000FBE7000080B5C046C046024A11001820EE
:103A2000ABBEFBE726000200000000000102030419
:103A30000102030406070809C046C046C046C04646
:083A4000FFF7D2FF02040608A3
:0400000508003A397C
:00000001FF
